{
  "abi": [
    {
      "inputs": [
        {
          "internalType": "address",
          "name": "submittedContract",
          "type": "address"
        }
      ],
      "name": "addContract",
      "outputs": [
        {
          "internalType": "bool",
          "name": "",
          "type": "bool"
        }
      ],
      "stateMutability": "nonpayable",
      "type": "function"
    },
    {
      "inputs": [
        {
          "internalType": "address",
          "name": "submittedContract",
          "type": "address"
        }
      ],
      "name": "checkOpcodeExists",
      "outputs": [
        {
          "internalType": "bool",
          "name": "",
          "type": "bool"
        }
      ],
      "stateMutability": "view",
      "type": "function"
    },
    {
      "inputs": [
        {
          "internalType": "uint256",
          "name": "",
          "type": "uint256"
        }
      ],
      "name": "contracts",
      "outputs": [
        {
          "internalType": "address",
          "name": "",
          "type": "address"
        }
      ],
      "stateMutability": "view",
      "type": "function"
    },
    {
      "inputs": [
        {
          "internalType": "address",
          "name": "submittedContract",
          "type": "address"
        }
      ],
      "name": "gateCondition",
      "outputs": [
        {
          "internalType": "bool",
          "name": "",
          "type": "bool"
        }
      ],
      "stateMutability": "view",
      "type": "function"
    }
  ],
  "bytecode": {
    "object": "0x608060405234801561001057600080fd5b50610242806100206000396000f3fe608060405234801561001057600080fd5b506004361061004c5760003560e01c8063474da79a146100515780635f539d6914610097578063d91a9d84146100ba578063ec24f4a9146100cd575b600080fd5b61007a61005f36600461019c565b6000602081905290815260409020546001600160a01b031681565b6040516001600160a01b0390911681526020015b60405180910390f35b6100aa6100a53660046101b5565b6100e0565b604051901515815260200161008e565b6100aa6100c83660046101b5565b610143565b6100aa6100db3660046101b5565b610160565b6000806100ec83610143565b9050801561013a5760018054600090815260208190526040812080546001600160a01b0319166001600160a01b0387161790558154919061012c836101e5565b909155506001949350505050565b50600092915050565b60008061014f83610160565b9050801561013a5750600192915050565b6000813b60405181600082863c908101905b8181101561019257805160e01c6055810361018957005b50600101610172565b5060009392505050565b6000602082840312156101ae57600080fd5b5035919050565b6000602082840312156101c757600080fd5b81356001600160a01b03811681146101de57600080fd5b9392505050565b60006001820161020557634e487b7160e01b600052601160045260246000fd5b506001019056fea264697066735822122048f3748db7b1dfd5944e6b8b8d6c2d1a61d0857b1527a623c501ce7fb6cfb7a464736f6c63430008110033",
    "linkReferences": {}
  },
  "methodIdentifiers": {
    "addContract(address)": "5f539d69",
    "checkOpcodeExists(address)": "ec24f4a9",
    "contracts(uint256)": "474da79a",
    "gateCondition(address)": "d91a9d84"
  },
  "id": 12
}