{
	"Users/n2000/dev/seeds/test/mocks/call/MockCall4.sol": {
		"MockCall4": {
			"abi": [
				{
					"inputs": [],
					"name": "CALLEE",
					"outputs": [
						{
							"internalType": "address",
							"name": "",
							"type": "address"
						}
					],
					"stateMutability": "view",
					"type": "function"
				},
				{
					"inputs": [],
					"name": "CALLER",
					"outputs": [
						{
							"internalType": "address",
							"name": "",
							"type": "address"
						}
					],
					"stateMutability": "view",
					"type": "function"
				},
				{
					"inputs": [],
					"name": "anotherDopeFunction",
					"outputs": [],
					"stateMutability": "nonpayable",
					"type": "function"
				},
				{
					"inputs": [],
					"name": "dopeFunction",
					"outputs": [],
					"stateMutability": "nonpayable",
					"type": "function"
				},
				{
					"inputs": [
						{
							"internalType": "uint256",
							"name": "",
							"type": "uint256"
						}
					],
					"name": "nums",
					"outputs": [
						{
							"internalType": "uint256",
							"name": "",
							"type": "uint256"
						}
					],
					"stateMutability": "view",
					"type": "function"
				}
			],
			"devdoc": {
				"kind": "dev",
				"methods": {},
				"version": 1
			},
			"evm": {
				"assembly": "    /* \"Users/n2000/dev/seeds/test/mocks/call/MockCall4.sol\":114:1020  contract MockCall4 {... */\n  mstore(0x40, 0x80)\n    /* \"Users/n2000/dev/seeds/test/mocks/call/MockCall4.sol\":377:405  MockCallee.coolFunc.selector */\n  shl(0xe0, 0xa7c6047c)\n    /* \"Users/n2000/dev/seeds/test/mocks/call/MockCall4.sol\":359:405  bytes4 selector = MockCallee.coolFunc.selector */\n  0x00\n  dup1\n  0x0100\n  exp\n  dup2\n  sload\n  dup2\n  0xffffffff\n  mul\n  not\n  and\n  swap1\n  dup4\n  0xe0\n  shr\n  mul\n  or\n  swap1\n  sstore\n  pop\n    /* \"Users/n2000/dev/seeds/test/mocks/call/MockCall4.sol\":453:479  bytes(\"fakeFunc(uint256)\") */\n  mload(0x40)\n  dup1\n  0x40\n  add\n  0x40\n  mstore\n  dup1\n  0x11\n  dup2\n  mstore\n  0x20\n  add\n  0x66616b6546756e632875696e7432353629000000000000000000000000000000\n  dup2\n  mstore\n  pop\n    /* \"Users/n2000/dev/seeds/test/mocks/call/MockCall4.sol\":443:480  keccak256(bytes(\"fakeFunc(uint256)\")) */\n  dup1\n  mload\n  swap1\n  0x20\n  add\n  keccak256\n    /* \"Users/n2000/dev/seeds/test/mocks/call/MockCall4.sol\":411:481  bytes4 anotherSelector = bytes4(keccak256(bytes(\"fakeFunc(uint256)\"))) */\n  0x00\n  exp(0x0100, 0x04)\n  dup2\n  sload\n  dup2\n  0xffffffff\n  mul\n  not\n  and\n  swap1\n  dup4\n  0xe0\n  shr\n  mul\n  or\n  swap1\n  sstore\n  pop\n    /* \"Users/n2000/dev/seeds/test/mocks/call/MockCall4.sol\":520:521  2 */\n  0x02\n    /* \"Users/n2000/dev/seeds/test/mocks/call/MockCall4.sol\":509:522  new uint[](2) */\n  0xffffffffffffffff\n  dup2\n  gt\n  iszero\n  tag_1\n  jumpi\n  tag_2\n  tag_3\n  jump\t// in\ntag_2:\ntag_1:\n  mload(0x40)\n  swap1\n  dup1\n  dup3\n  mstore\n  dup1\n  0x20\n  mul\n  0x20\n  add\n  dup3\n  add\n  0x40\n  mstore\n  dup1\n  iszero\n  tag_4\n  jumpi\n  dup2\n  0x20\n  add\n  0x20\n  dup3\n  mul\n  dup1\n  calldatasize\n  dup4\n  calldatacopy\n  dup1\n  dup3\n  add\n  swap2\n  pop\n  pop\n  swap1\n  pop\ntag_4:\n  pop\n    /* \"Users/n2000/dev/seeds/test/mocks/call/MockCall4.sol\":488:522  uint[] public nums = new uint[](2) */\n  0x01\n  swap1\n  dup1\n  mload\n  swap1\n  0x20\n  add\n  swap1\n  tag_5\n  swap3\n  swap2\n  swap1\n  tag_6\n  jump\t// in\ntag_5:\n  pop\n    /* \"Users/n2000/dev/seeds/test/mocks/call/MockCall4.sol\":114:1020  contract MockCall4 {... */\n  callvalue\n  dup1\n  iszero\n  tag_7\n  jumpi\n  0x00\n  dup1\n  revert\ntag_7:\n  pop\n  jump(tag_8)\ntag_6:\n  dup3\n  dup1\n  sload\n  dup3\n  dup3\n  sstore\n  swap1\n  0x00\n  mstore\n  keccak256(0x00, 0x20)\n  swap1\n  dup2\n  add\n  swap3\n  dup3\n  iszero\n  tag_9\n  jumpi\n  swap2\n  0x20\n  mul\n  dup3\n  add\ntag_10:\n  dup3\n  dup2\n  gt\n  iszero\n  tag_11\n  jumpi\n  dup3\n  mload\n  dup3\n  sstore\n  swap2\n  0x20\n  add\n  swap2\n  swap1\n  0x01\n  add\n  swap1\n  jump(tag_10)\ntag_11:\ntag_9:\n  pop\n  swap1\n  pop\n  tag_12\n  swap2\n  swap1\n  tag_13\n  jump\t// in\ntag_12:\n  pop\n  swap1\n  jump\t// out\ntag_13:\ntag_14:\n  dup1\n  dup3\n  gt\n  iszero\n  tag_15\n  jumpi\n  0x00\n  dup2\n  0x00\n  swap1\n  sstore\n  pop\n  0x01\n  add\n  jump(tag_14)\ntag_15:\n  pop\n  swap1\n  jump\t// out\n    /* \"#utility.yul\":7:187   */\ntag_3:\n    /* \"#utility.yul\":55:132   */\n  0x4e487b7100000000000000000000000000000000000000000000000000000000\n    /* \"#utility.yul\":52:53   */\n  0x00\n    /* \"#utility.yul\":45:133   */\n  mstore\n    /* \"#utility.yul\":152:156   */\n  0x41\n    /* \"#utility.yul\":149:150   */\n  0x04\n    /* \"#utility.yul\":142:157   */\n  mstore\n    /* \"#utility.yul\":176:180   */\n  0x24\n    /* \"#utility.yul\":173:174   */\n  0x00\n    /* \"#utility.yul\":166:181   */\n  revert\n    /* \"Users/n2000/dev/seeds/test/mocks/call/MockCall4.sol\":114:1020  contract MockCall4 {... */\ntag_8:\n  dataSize(sub_0)\n  dup1\n  dataOffset(sub_0)\n  0x00\n  codecopy\n  0x00\n  return\nstop\n\nsub_0: assembly {\n        /* \"Users/n2000/dev/seeds/test/mocks/call/MockCall4.sol\":114:1020  contract MockCall4 {... */\n      mstore(0x40, 0x80)\n      callvalue\n      dup1\n      iszero\n      tag_1\n      jumpi\n      0x00\n      dup1\n      revert\n    tag_1:\n      pop\n      jumpi(tag_2, lt(calldatasize, 0x04))\n      shr(0xe0, calldataload(0x00))\n      dup1\n      0x863dabb4\n      eq\n      tag_3\n      jumpi\n      dup1\n      0xb04bd97f\n      eq\n      tag_4\n      jumpi\n      dup1\n      0xb923b370\n      eq\n      tag_5\n      jumpi\n      dup1\n      0xfd1ee54c\n      eq\n      tag_6\n      jumpi\n      dup1\n      0xfd60d284\n      eq\n      tag_7\n      jumpi\n    tag_2:\n      0x00\n      dup1\n      revert\n        /* \"Users/n2000/dev/seeds/test/mocks/call/MockCall4.sol\":140:215  address public constant CALLER = 0x6dfc34609a05bC22319fA4Cce1d1E2929548c0D7 */\n    tag_3:\n      tag_8\n      tag_9\n      jump\t// in\n    tag_8:\n      mload(0x40)\n      tag_10\n      swap2\n      swap1\n      tag_11\n      jump\t// in\n    tag_10:\n      mload(0x40)\n      dup1\n      swap2\n      sub\n      swap1\n      return\n        /* \"Users/n2000/dev/seeds/test/mocks/call/MockCall4.sol\":533:769  function dopeFunction() public {... */\n    tag_4:\n      tag_12\n      tag_13\n      jump\t// in\n    tag_12:\n      stop\n        /* \"Users/n2000/dev/seeds/test/mocks/call/MockCall4.sol\":221:296  address public constant CALLEE = 0xb0EdA4f836aF0F8Ca667700c42fcEFA0742ae2B5 */\n    tag_5:\n      tag_14\n      tag_15\n      jump\t// in\n    tag_14:\n      mload(0x40)\n      tag_16\n      swap2\n      swap1\n      tag_11\n      jump\t// in\n    tag_16:\n      mload(0x40)\n      dup1\n      swap2\n      sub\n      swap1\n      return\n        /* \"Users/n2000/dev/seeds/test/mocks/call/MockCall4.sol\":488:522  uint[] public nums = new uint[](2) */\n    tag_6:\n      tag_17\n      0x04\n      dup1\n      calldatasize\n      sub\n      dup2\n      add\n      swap1\n      tag_18\n      swap2\n      swap1\n      tag_19\n      jump\t// in\n    tag_18:\n      tag_20\n      jump\t// in\n    tag_17:\n      mload(0x40)\n      tag_21\n      swap2\n      swap1\n      tag_22\n      jump\t// in\n    tag_21:\n      mload(0x40)\n      dup1\n      swap2\n      sub\n      swap1\n      return\n        /* \"Users/n2000/dev/seeds/test/mocks/call/MockCall4.sol\":775:1018  function anotherDopeFunction() public {... */\n    tag_7:\n      tag_23\n      tag_24\n      jump\t// in\n    tag_23:\n      stop\n        /* \"Users/n2000/dev/seeds/test/mocks/call/MockCall4.sol\":140:215  address public constant CALLER = 0x6dfc34609a05bC22319fA4Cce1d1E2929548c0D7 */\n    tag_9:\n        /* \"Users/n2000/dev/seeds/test/mocks/call/MockCall4.sol\":173:215  0x6dfc34609a05bC22319fA4Cce1d1E2929548c0D7 */\n      0x6dfc34609a05bc22319fa4cce1d1e2929548c0d7\n        /* \"Users/n2000/dev/seeds/test/mocks/call/MockCall4.sol\":140:215  address public constant CALLER = 0x6dfc34609a05bC22319fA4Cce1d1E2929548c0D7 */\n      dup2\n      jump\t// out\n        /* \"Users/n2000/dev/seeds/test/mocks/call/MockCall4.sol\":533:769  function dopeFunction() public {... */\n    tag_13:\n        /* \"Users/n2000/dev/seeds/test/mocks/call/MockCall4.sol\":659:671  bool success */\n      0x00\n        /* \"Users/n2000/dev/seeds/test/mocks/call/MockCall4.sol\":673:690  bytes memory data */\n      dup1\n        /* \"Users/n2000/dev/seeds/test/mocks/call/MockCall4.sol\":254:296  0xb0EdA4f836aF0F8Ca667700c42fcEFA0742ae2B5 */\n      0xb0eda4f836af0f8ca667700c42fcefa0742ae2b5\n        /* \"Users/n2000/dev/seeds/test/mocks/call/MockCall4.sol\":694:705  CALLEE.call */\n      0xffffffffffffffffffffffffffffffffffffffff\n      and\n        /* \"Users/n2000/dev/seeds/test/mocks/call/MockCall4.sol\":729:757  MockCallee.niceFunc.selector */\n      shl(0xe0, 0xa7c52d6e)\n        /* \"Users/n2000/dev/seeds/test/mocks/call/MockCall4.sol\":759:760  1 */\n      0x01\n        /* \"Users/n2000/dev/seeds/test/mocks/call/MockCall4.sol\":706:761  abi.encodeWithSelector(MockCallee.niceFunc.selector, 1) */\n      add(0x24, mload(0x40))\n      tag_26\n      swap2\n      swap1\n      tag_27\n      jump\t// in\n    tag_26:\n      mload(0x40)\n      0x20\n      dup2\n      dup4\n      sub\n      sub\n      dup2\n      mstore\n      swap1\n      0x40\n      mstore\n      swap1\n      not(0xffffffffffffffffffffffffffffffffffffffffffffffffffffffff)\n      and\n      0x20\n      dup3\n      add\n      dup1\n      mload\n      0xffffffffffffffffffffffffffffffffffffffffffffffffffffffff\n      dup4\n      dup2\n      dup4\n      and\n      or\n      dup4\n      mstore\n      pop\n      pop\n      pop\n      pop\n        /* \"Users/n2000/dev/seeds/test/mocks/call/MockCall4.sol\":694:762  CALLEE.call(abi.encodeWithSelector(MockCallee.niceFunc.selector, 1)) */\n      mload(0x40)\n      tag_28\n      swap2\n      swap1\n      tag_29\n      jump\t// in\n    tag_28:\n      0x00\n      mload(0x40)\n      dup1\n      dup4\n      sub\n      dup2\n      0x00\n      dup7\n      gas\n      call\n      swap2\n      pop\n      pop\n      returndatasize\n      dup1\n      0x00\n      dup2\n      eq\n      tag_32\n      jumpi\n      mload(0x40)\n      swap2\n      pop\n      and(add(returndatasize, 0x3f), not(0x1f))\n      dup3\n      add\n      0x40\n      mstore\n      returndatasize\n      dup3\n      mstore\n      returndatasize\n      0x00\n      0x20\n      dup5\n      add\n      returndatacopy\n      jump(tag_31)\n    tag_32:\n      0x60\n      swap2\n      pop\n    tag_31:\n      pop\n        /* \"Users/n2000/dev/seeds/test/mocks/call/MockCall4.sol\":658:762  (bool success, bytes memory data) = CALLEE.call(abi.encodeWithSelector(MockCallee.niceFunc.selector, 1)) */\n      swap2\n      pop\n      swap2\n      pop\n        /* \"Users/n2000/dev/seeds/test/mocks/call/MockCall4.sol\":564:769  {... */\n      pop\n      pop\n        /* \"Users/n2000/dev/seeds/test/mocks/call/MockCall4.sol\":533:769  function dopeFunction() public {... */\n      jump\t// out\n        /* \"Users/n2000/dev/seeds/test/mocks/call/MockCall4.sol\":221:296  address public constant CALLEE = 0xb0EdA4f836aF0F8Ca667700c42fcEFA0742ae2B5 */\n    tag_15:\n        /* \"Users/n2000/dev/seeds/test/mocks/call/MockCall4.sol\":254:296  0xb0EdA4f836aF0F8Ca667700c42fcEFA0742ae2B5 */\n      0xb0eda4f836af0f8ca667700c42fcefa0742ae2b5\n        /* \"Users/n2000/dev/seeds/test/mocks/call/MockCall4.sol\":221:296  address public constant CALLEE = 0xb0EdA4f836aF0F8Ca667700c42fcEFA0742ae2B5 */\n      dup2\n      jump\t// out\n        /* \"Users/n2000/dev/seeds/test/mocks/call/MockCall4.sol\":488:522  uint[] public nums = new uint[](2) */\n    tag_20:\n      0x01\n      dup2\n      dup2\n      sload\n      dup2\n      lt\n      tag_33\n      jumpi\n      0x00\n      dup1\n      revert\n    tag_33:\n      swap1\n      0x00\n      mstore\n      keccak256(0x00, 0x20)\n      add\n      0x00\n      swap2\n      pop\n      swap1\n      pop\n      sload\n      dup2\n      jump\t// out\n        /* \"Users/n2000/dev/seeds/test/mocks/call/MockCall4.sol\":775:1018  function anotherDopeFunction() public {... */\n    tag_24:\n        /* \"Users/n2000/dev/seeds/test/mocks/call/MockCall4.sol\":908:920  bool success */\n      0x00\n        /* \"Users/n2000/dev/seeds/test/mocks/call/MockCall4.sol\":922:939  bytes memory data */\n      dup1\n        /* \"Users/n2000/dev/seeds/test/mocks/call/MockCall4.sol\":254:296  0xb0EdA4f836aF0F8Ca667700c42fcEFA0742ae2B5 */\n      0xb0eda4f836af0f8ca667700c42fcefa0742ae2b5\n        /* \"Users/n2000/dev/seeds/test/mocks/call/MockCall4.sol\":943:954  CALLEE.call */\n      0xffffffffffffffffffffffffffffffffffffffff\n      and\n        /* \"Users/n2000/dev/seeds/test/mocks/call/MockCall4.sol\":978:1006  MockCallee.coolFunc.selector */\n      shl(0xe0, 0xa7c6047c)\n        /* \"Users/n2000/dev/seeds/test/mocks/call/MockCall4.sol\":1008:1009  1 */\n      0x01\n        /* \"Users/n2000/dev/seeds/test/mocks/call/MockCall4.sol\":955:1010  abi.encodeWithSelector(MockCallee.coolFunc.selector, 1) */\n      add(0x24, mload(0x40))\n      tag_36\n      swap2\n      swap1\n      tag_27\n      jump\t// in\n    tag_36:\n      mload(0x40)\n      0x20\n      dup2\n      dup4\n      sub\n      sub\n      dup2\n      mstore\n      swap1\n      0x40\n      mstore\n      swap1\n      not(0xffffffffffffffffffffffffffffffffffffffffffffffffffffffff)\n      and\n      0x20\n      dup3\n      add\n      dup1\n      mload\n      0xffffffffffffffffffffffffffffffffffffffffffffffffffffffff\n      dup4\n      dup2\n      dup4\n      and\n      or\n      dup4\n      mstore\n      pop\n      pop\n      pop\n      pop\n        /* \"Users/n2000/dev/seeds/test/mocks/call/MockCall4.sol\":943:1011  CALLEE.call(abi.encodeWithSelector(MockCallee.coolFunc.selector, 1)) */\n      mload(0x40)\n      tag_37\n      swap2\n      swap1\n      tag_29\n      jump\t// in\n    tag_37:\n      0x00\n      mload(0x40)\n      dup1\n      dup4\n      sub\n      dup2\n      0x00\n      dup7\n      gas\n      call\n      swap2\n      pop\n      pop\n      returndatasize\n      dup1\n      0x00\n      dup2\n      eq\n      tag_40\n      jumpi\n      mload(0x40)\n      swap2\n      pop\n      and(add(returndatasize, 0x3f), not(0x1f))\n      dup3\n      add\n      0x40\n      mstore\n      returndatasize\n      dup3\n      mstore\n      returndatasize\n      0x00\n      0x20\n      dup5\n      add\n      returndatacopy\n      jump(tag_39)\n    tag_40:\n      0x60\n      swap2\n      pop\n    tag_39:\n      pop\n        /* \"Users/n2000/dev/seeds/test/mocks/call/MockCall4.sol\":907:1011  (bool success, bytes memory data) = CALLEE.call(abi.encodeWithSelector(MockCallee.coolFunc.selector, 1)) */\n      swap2\n      pop\n      swap2\n      pop\n        /* \"Users/n2000/dev/seeds/test/mocks/call/MockCall4.sol\":813:1018  {... */\n      pop\n      pop\n        /* \"Users/n2000/dev/seeds/test/mocks/call/MockCall4.sol\":775:1018  function anotherDopeFunction() public {... */\n      jump\t// out\n        /* \"#utility.yul\":7:133   */\n    tag_41:\n        /* \"#utility.yul\":44:51   */\n      0x00\n        /* \"#utility.yul\":84:126   */\n      0xffffffffffffffffffffffffffffffffffffffff\n        /* \"#utility.yul\":77:82   */\n      dup3\n        /* \"#utility.yul\":73:127   */\n      and\n        /* \"#utility.yul\":62:127   */\n      swap1\n      pop\n        /* \"#utility.yul\":7:133   */\n      swap2\n      swap1\n      pop\n      jump\t// out\n        /* \"#utility.yul\":139:235   */\n    tag_42:\n        /* \"#utility.yul\":176:183   */\n      0x00\n        /* \"#utility.yul\":205:229   */\n      tag_63\n        /* \"#utility.yul\":223:228   */\n      dup3\n        /* \"#utility.yul\":205:229   */\n      tag_41\n      jump\t// in\n    tag_63:\n        /* \"#utility.yul\":194:229   */\n      swap1\n      pop\n        /* \"#utility.yul\":139:235   */\n      swap2\n      swap1\n      pop\n      jump\t// out\n        /* \"#utility.yul\":241:359   */\n    tag_43:\n        /* \"#utility.yul\":328:352   */\n      tag_65\n        /* \"#utility.yul\":346:351   */\n      dup2\n        /* \"#utility.yul\":328:352   */\n      tag_42\n      jump\t// in\n    tag_65:\n        /* \"#utility.yul\":323:326   */\n      dup3\n        /* \"#utility.yul\":316:353   */\n      mstore\n        /* \"#utility.yul\":241:359   */\n      pop\n      pop\n      jump\t// out\n        /* \"#utility.yul\":365:587   */\n    tag_11:\n        /* \"#utility.yul\":458:462   */\n      0x00\n        /* \"#utility.yul\":496:498   */\n      0x20\n        /* \"#utility.yul\":485:494   */\n      dup3\n        /* \"#utility.yul\":481:499   */\n      add\n        /* \"#utility.yul\":473:499   */\n      swap1\n      pop\n        /* \"#utility.yul\":509:580   */\n      tag_67\n        /* \"#utility.yul\":577:578   */\n      0x00\n        /* \"#utility.yul\":566:575   */\n      dup4\n        /* \"#utility.yul\":562:579   */\n      add\n        /* \"#utility.yul\":553:559   */\n      dup5\n        /* \"#utility.yul\":509:580   */\n      tag_43\n      jump\t// in\n    tag_67:\n        /* \"#utility.yul\":365:587   */\n      swap3\n      swap2\n      pop\n      pop\n      jump\t// out\n        /* \"#utility.yul\":674:791   */\n    tag_45:\n        /* \"#utility.yul\":783:784   */\n      0x00\n        /* \"#utility.yul\":780:781   */\n      dup1\n        /* \"#utility.yul\":773:785   */\n      revert\n        /* \"#utility.yul\":920:997   */\n    tag_47:\n        /* \"#utility.yul\":957:964   */\n      0x00\n        /* \"#utility.yul\":986:991   */\n      dup2\n        /* \"#utility.yul\":975:991   */\n      swap1\n      pop\n        /* \"#utility.yul\":920:997   */\n      swap2\n      swap1\n      pop\n      jump\t// out\n        /* \"#utility.yul\":1003:1125   */\n    tag_48:\n        /* \"#utility.yul\":1076:1100   */\n      tag_73\n        /* \"#utility.yul\":1094:1099   */\n      dup2\n        /* \"#utility.yul\":1076:1100   */\n      tag_47\n      jump\t// in\n    tag_73:\n        /* \"#utility.yul\":1069:1074   */\n      dup2\n        /* \"#utility.yul\":1066:1101   */\n      eq\n        /* \"#utility.yul\":1056:1119   */\n      tag_74\n      jumpi\n        /* \"#utility.yul\":1115:1116   */\n      0x00\n        /* \"#utility.yul\":1112:1113   */\n      dup1\n        /* \"#utility.yul\":1105:1117   */\n      revert\n        /* \"#utility.yul\":1056:1119   */\n    tag_74:\n        /* \"#utility.yul\":1003:1125   */\n      pop\n      jump\t// out\n        /* \"#utility.yul\":1131:1270   */\n    tag_49:\n        /* \"#utility.yul\":1177:1182   */\n      0x00\n        /* \"#utility.yul\":1215:1221   */\n      dup2\n        /* \"#utility.yul\":1202:1222   */\n      calldataload\n        /* \"#utility.yul\":1193:1222   */\n      swap1\n      pop\n        /* \"#utility.yul\":1231:1264   */\n      tag_76\n        /* \"#utility.yul\":1258:1263   */\n      dup2\n        /* \"#utility.yul\":1231:1264   */\n      tag_48\n      jump\t// in\n    tag_76:\n        /* \"#utility.yul\":1131:1270   */\n      swap3\n      swap2\n      pop\n      pop\n      jump\t// out\n        /* \"#utility.yul\":1276:1605   */\n    tag_19:\n        /* \"#utility.yul\":1335:1341   */\n      0x00\n        /* \"#utility.yul\":1384:1386   */\n      0x20\n        /* \"#utility.yul\":1372:1381   */\n      dup3\n        /* \"#utility.yul\":1363:1370   */\n      dup5\n        /* \"#utility.yul\":1359:1382   */\n      sub\n        /* \"#utility.yul\":1355:1387   */\n      slt\n        /* \"#utility.yul\":1352:1471   */\n      iszero\n      tag_78\n      jumpi\n        /* \"#utility.yul\":1390:1469   */\n      tag_79\n      tag_45\n      jump\t// in\n    tag_79:\n        /* \"#utility.yul\":1352:1471   */\n    tag_78:\n        /* \"#utility.yul\":1510:1511   */\n      0x00\n        /* \"#utility.yul\":1535:1588   */\n      tag_80\n        /* \"#utility.yul\":1580:1587   */\n      dup5\n        /* \"#utility.yul\":1571:1577   */\n      dup3\n        /* \"#utility.yul\":1560:1569   */\n      dup6\n        /* \"#utility.yul\":1556:1578   */\n      add\n        /* \"#utility.yul\":1535:1588   */\n      tag_49\n      jump\t// in\n    tag_80:\n        /* \"#utility.yul\":1525:1588   */\n      swap2\n      pop\n        /* \"#utility.yul\":1481:1598   */\n      pop\n        /* \"#utility.yul\":1276:1605   */\n      swap3\n      swap2\n      pop\n      pop\n      jump\t// out\n        /* \"#utility.yul\":1611:1729   */\n    tag_50:\n        /* \"#utility.yul\":1698:1722   */\n      tag_82\n        /* \"#utility.yul\":1716:1721   */\n      dup2\n        /* \"#utility.yul\":1698:1722   */\n      tag_47\n      jump\t// in\n    tag_82:\n        /* \"#utility.yul\":1693:1696   */\n      dup3\n        /* \"#utility.yul\":1686:1723   */\n      mstore\n        /* \"#utility.yul\":1611:1729   */\n      pop\n      pop\n      jump\t// out\n        /* \"#utility.yul\":1735:1957   */\n    tag_22:\n        /* \"#utility.yul\":1828:1832   */\n      0x00\n        /* \"#utility.yul\":1866:1868   */\n      0x20\n        /* \"#utility.yul\":1855:1864   */\n      dup3\n        /* \"#utility.yul\":1851:1869   */\n      add\n        /* \"#utility.yul\":1843:1869   */\n      swap1\n      pop\n        /* \"#utility.yul\":1879:1950   */\n      tag_84\n        /* \"#utility.yul\":1947:1948   */\n      0x00\n        /* \"#utility.yul\":1936:1945   */\n      dup4\n        /* \"#utility.yul\":1932:1949   */\n      add\n        /* \"#utility.yul\":1923:1929   */\n      dup5\n        /* \"#utility.yul\":1879:1950   */\n      tag_50\n      jump\t// in\n    tag_84:\n        /* \"#utility.yul\":1735:1957   */\n      swap3\n      swap2\n      pop\n      pop\n      jump\t// out\n        /* \"#utility.yul\":1963:2048   */\n    tag_51:\n        /* \"#utility.yul\":2008:2015   */\n      0x00\n        /* \"#utility.yul\":2037:2042   */\n      dup2\n        /* \"#utility.yul\":2026:2042   */\n      swap1\n      pop\n        /* \"#utility.yul\":1963:2048   */\n      swap2\n      swap1\n      pop\n      jump\t// out\n        /* \"#utility.yul\":2054:2140   */\n    tag_52:\n        /* \"#utility.yul\":2089:2096   */\n      0x00\n        /* \"#utility.yul\":2129:2133   */\n      0xff\n        /* \"#utility.yul\":2122:2127   */\n      dup3\n        /* \"#utility.yul\":2118:2134   */\n      and\n        /* \"#utility.yul\":2107:2134   */\n      swap1\n      pop\n        /* \"#utility.yul\":2054:2140   */\n      swap2\n      swap1\n      pop\n      jump\t// out\n        /* \"#utility.yul\":2146:2206   */\n    tag_53:\n        /* \"#utility.yul\":2174:2177   */\n      0x00\n        /* \"#utility.yul\":2195:2200   */\n      dup2\n        /* \"#utility.yul\":2188:2200   */\n      swap1\n      pop\n        /* \"#utility.yul\":2146:2206   */\n      swap2\n      swap1\n      pop\n      jump\t// out\n        /* \"#utility.yul\":2212:2366   */\n    tag_54:\n        /* \"#utility.yul\":2268:2277   */\n      0x00\n        /* \"#utility.yul\":2301:2360   */\n      tag_89\n        /* \"#utility.yul\":2317:2359   */\n      tag_90\n        /* \"#utility.yul\":2326:2358   */\n      tag_91\n        /* \"#utility.yul\":2352:2357   */\n      dup5\n        /* \"#utility.yul\":2326:2358   */\n      tag_51\n      jump\t// in\n    tag_91:\n        /* \"#utility.yul\":2317:2359   */\n      tag_53\n      jump\t// in\n    tag_90:\n        /* \"#utility.yul\":2301:2360   */\n      tag_52\n      jump\t// in\n    tag_89:\n        /* \"#utility.yul\":2288:2360   */\n      swap1\n      pop\n        /* \"#utility.yul\":2212:2366   */\n      swap2\n      swap1\n      pop\n      jump\t// out\n        /* \"#utility.yul\":2372:2515   */\n    tag_55:\n        /* \"#utility.yul\":2465:2508   */\n      tag_93\n        /* \"#utility.yul\":2502:2507   */\n      dup2\n        /* \"#utility.yul\":2465:2508   */\n      tag_54\n      jump\t// in\n    tag_93:\n        /* \"#utility.yul\":2460:2463   */\n      dup3\n        /* \"#utility.yul\":2453:2509   */\n      mstore\n        /* \"#utility.yul\":2372:2515   */\n      pop\n      pop\n      jump\t// out\n        /* \"#utility.yul\":2521:2755   */\n    tag_27:\n        /* \"#utility.yul\":2620:2624   */\n      0x00\n        /* \"#utility.yul\":2658:2660   */\n      0x20\n        /* \"#utility.yul\":2647:2656   */\n      dup3\n        /* \"#utility.yul\":2643:2661   */\n      add\n        /* \"#utility.yul\":2635:2661   */\n      swap1\n      pop\n        /* \"#utility.yul\":2671:2748   */\n      tag_95\n        /* \"#utility.yul\":2745:2746   */\n      0x00\n        /* \"#utility.yul\":2734:2743   */\n      dup4\n        /* \"#utility.yul\":2730:2747   */\n      add\n        /* \"#utility.yul\":2721:2727   */\n      dup5\n        /* \"#utility.yul\":2671:2748   */\n      tag_55\n      jump\t// in\n    tag_95:\n        /* \"#utility.yul\":2521:2755   */\n      swap3\n      swap2\n      pop\n      pop\n      jump\t// out\n        /* \"#utility.yul\":2761:2859   */\n    tag_56:\n        /* \"#utility.yul\":2812:2818   */\n      0x00\n        /* \"#utility.yul\":2846:2851   */\n      dup2\n        /* \"#utility.yul\":2840:2852   */\n      mload\n        /* \"#utility.yul\":2830:2852   */\n      swap1\n      pop\n        /* \"#utility.yul\":2761:2859   */\n      swap2\n      swap1\n      pop\n      jump\t// out\n        /* \"#utility.yul\":2865:3012   */\n    tag_57:\n        /* \"#utility.yul\":2966:2977   */\n      0x00\n        /* \"#utility.yul\":3003:3006   */\n      dup2\n        /* \"#utility.yul\":2988:3006   */\n      swap1\n      pop\n        /* \"#utility.yul\":2865:3012   */\n      swap3\n      swap2\n      pop\n      pop\n      jump\t// out\n        /* \"#utility.yul\":3018:3325   */\n    tag_58:\n        /* \"#utility.yul\":3086:3087   */\n      0x00\n        /* \"#utility.yul\":3096:3209   */\n    tag_99:\n        /* \"#utility.yul\":3110:3116   */\n      dup4\n        /* \"#utility.yul\":3107:3108   */\n      dup2\n        /* \"#utility.yul\":3104:3117   */\n      lt\n        /* \"#utility.yul\":3096:3209   */\n      iszero\n      tag_101\n      jumpi\n        /* \"#utility.yul\":3195:3196   */\n      dup1\n        /* \"#utility.yul\":3190:3193   */\n      dup3\n        /* \"#utility.yul\":3186:3197   */\n      add\n        /* \"#utility.yul\":3180:3198   */\n      mload\n        /* \"#utility.yul\":3176:3177   */\n      dup2\n        /* \"#utility.yul\":3171:3174   */\n      dup5\n        /* \"#utility.yul\":3167:3178   */\n      add\n        /* \"#utility.yul\":3160:3199   */\n      mstore\n        /* \"#utility.yul\":3132:3134   */\n      0x20\n        /* \"#utility.yul\":3129:3130   */\n      dup2\n        /* \"#utility.yul\":3125:3135   */\n      add\n        /* \"#utility.yul\":3120:3135   */\n      swap1\n      pop\n        /* \"#utility.yul\":3096:3209   */\n      jump(tag_99)\n    tag_101:\n        /* \"#utility.yul\":3227:3233   */\n      dup4\n        /* \"#utility.yul\":3224:3225   */\n      dup2\n        /* \"#utility.yul\":3221:3234   */\n      gt\n        /* \"#utility.yul\":3218:3319   */\n      iszero\n      tag_102\n      jumpi\n        /* \"#utility.yul\":3307:3308   */\n      0x00\n        /* \"#utility.yul\":3298:3304   */\n      dup5\n        /* \"#utility.yul\":3293:3296   */\n      dup5\n        /* \"#utility.yul\":3289:3305   */\n      add\n        /* \"#utility.yul\":3282:3309   */\n      mstore\n        /* \"#utility.yul\":3218:3319   */\n    tag_102:\n        /* \"#utility.yul\":3067:3325   */\n      pop\n        /* \"#utility.yul\":3018:3325   */\n      pop\n      pop\n      pop\n      jump\t// out\n        /* \"#utility.yul\":3331:3704   */\n    tag_59:\n        /* \"#utility.yul\":3435:3438   */\n      0x00\n        /* \"#utility.yul\":3463:3501   */\n      tag_104\n        /* \"#utility.yul\":3495:3500   */\n      dup3\n        /* \"#utility.yul\":3463:3501   */\n      tag_56\n      jump\t// in\n    tag_104:\n        /* \"#utility.yul\":3517:3605   */\n      tag_105\n        /* \"#utility.yul\":3598:3604   */\n      dup2\n        /* \"#utility.yul\":3593:3596   */\n      dup6\n        /* \"#utility.yul\":3517:3605   */\n      tag_57\n      jump\t// in\n    tag_105:\n        /* \"#utility.yul\":3510:3605   */\n      swap4\n      pop\n        /* \"#utility.yul\":3614:3666   */\n      tag_106\n        /* \"#utility.yul\":3659:3665   */\n      dup2\n        /* \"#utility.yul\":3654:3657   */\n      dup6\n        /* \"#utility.yul\":3647:3651   */\n      0x20\n        /* \"#utility.yul\":3640:3645   */\n      dup7\n        /* \"#utility.yul\":3636:3652   */\n      add\n        /* \"#utility.yul\":3614:3666   */\n      tag_58\n      jump\t// in\n    tag_106:\n        /* \"#utility.yul\":3691:3697   */\n      dup1\n        /* \"#utility.yul\":3686:3689   */\n      dup5\n        /* \"#utility.yul\":3682:3698   */\n      add\n        /* \"#utility.yul\":3675:3698   */\n      swap2\n      pop\n        /* \"#utility.yul\":3439:3704   */\n      pop\n        /* \"#utility.yul\":3331:3704   */\n      swap3\n      swap2\n      pop\n      pop\n      jump\t// out\n        /* \"#utility.yul\":3710:3981   */\n    tag_29:\n        /* \"#utility.yul\":3840:3843   */\n      0x00\n        /* \"#utility.yul\":3862:3955   */\n      tag_108\n        /* \"#utility.yul\":3951:3954   */\n      dup3\n        /* \"#utility.yul\":3942:3948   */\n      dup5\n        /* \"#utility.yul\":3862:3955   */\n      tag_59\n      jump\t// in\n    tag_108:\n        /* \"#utility.yul\":3855:3955   */\n      swap2\n      pop\n        /* \"#utility.yul\":3972:3975   */\n      dup2\n        /* \"#utility.yul\":3965:3975   */\n      swap1\n      pop\n        /* \"#utility.yul\":3710:3981   */\n      swap3\n      swap2\n      pop\n      pop\n      jump\t// out\n\n    auxdata: 0xa26469706673582212206a831fca6480582ce7a07d8889e4f22ca4847062bfd6b48777919895161a3cf564736f6c634300080d0033\n}\n",
				"bytecode": {
					"linkReferences": {},
					"object": "608060405263a7c6047c60e01b6000806101000a81548163ffffffff021916908360e01c02179055506040518060400160405280601181526020017f66616b6546756e632875696e743235362900000000000000000000000000000081525080519060200120600060046101000a81548163ffffffff021916908360e01c0217905550600267ffffffffffffffff81111561009d5761009c61015e565b5b6040519080825280602002602001820160405280156100cb5781602001602082028036833780820191505090505b50600190805190602001906100e19291906100f4565b503480156100ee57600080fd5b5061018d565b828054828255906000526020600020908101928215610130579160200282015b8281111561012f578251825591602001919060010190610114565b5b50905061013d9190610141565b5090565b5b8082111561015a576000816000905550600101610142565b5090565b7f4e487b7100000000000000000000000000000000000000000000000000000000600052604160045260246000fd5b61054c8061019c6000396000f3fe608060405234801561001057600080fd5b50600436106100575760003560e01c8063863dabb41461005c578063b04bd97f1461007a578063b923b37014610084578063fd1ee54c146100a2578063fd60d284146100d2575b600080fd5b6100646100dc565b604051610071919061036b565b60405180910390f35b6100826100f4565b005b61008c6101f1565b604051610099919061036b565b60405180910390f35b6100bc60048036038101906100b791906103c1565b610209565b6040516100c991906103fd565b60405180910390f35b6100da61022d565b005b736dfc34609a05bc22319fa4cce1d1e2929548c0d781565b60008073b0eda4f836af0f8ca667700c42fcefa0742ae2b573ffffffffffffffffffffffffffffffffffffffff1663a7c52d6e60e01b600160405160240161013c919061046a565b604051602081830303815290604052907bffffffffffffffffffffffffffffffffffffffffffffffffffffffff19166020820180517bffffffffffffffffffffffffffffffffffffffffffffffffffffffff83818316178352505050506040516101a691906104ff565b6000604051808303816000865af19150503d80600081146101e3576040519150601f19603f3d011682016040523d82523d6000602084013e6101e8565b606091505b50915091505050565b73b0eda4f836af0f8ca667700c42fcefa0742ae2b581565b6001818154811061021957600080fd5b906000526020600020016000915090505481565b60008073b0eda4f836af0f8ca667700c42fcefa0742ae2b573ffffffffffffffffffffffffffffffffffffffff1663a7c6047c60e01b6001604051602401610275919061046a565b604051602081830303815290604052907bffffffffffffffffffffffffffffffffffffffffffffffffffffffff19166020820180517bffffffffffffffffffffffffffffffffffffffffffffffffffffffff83818316178352505050506040516102df91906104ff565b6000604051808303816000865af19150503d806000811461031c576040519150601f19603f3d011682016040523d82523d6000602084013e610321565b606091505b50915091505050565b600073ffffffffffffffffffffffffffffffffffffffff82169050919050565b60006103558261032a565b9050919050565b6103658161034a565b82525050565b6000602082019050610380600083018461035c565b92915050565b600080fd5b6000819050919050565b61039e8161038b565b81146103a957600080fd5b50565b6000813590506103bb81610395565b92915050565b6000602082840312156103d7576103d6610386565b5b60006103e5848285016103ac565b91505092915050565b6103f78161038b565b82525050565b600060208201905061041260008301846103ee565b92915050565b6000819050919050565b600060ff82169050919050565b6000819050919050565b600061045461044f61044a84610418565b61042f565b610422565b9050919050565b61046481610439565b82525050565b600060208201905061047f600083018461045b565b92915050565b600081519050919050565b600081905092915050565b60005b838110156104b957808201518184015260208101905061049e565b838111156104c8576000848401525b50505050565b60006104d982610485565b6104e38185610490565b93506104f381856020860161049b565b80840191505092915050565b600061050b82846104ce565b91508190509291505056fea26469706673582212206a831fca6480582ce7a07d8889e4f22ca4847062bfd6b48777919895161a3cf564736f6c634300080d0033",
					"opcodes": "PUSH1 0x80 PUSH1 0x40 MSTORE PUSH4 0xA7C6047C PUSH1 0xE0 SHL PUSH1 0x0 DUP1 PUSH2 0x100 EXP DUP2 SLOAD DUP2 PUSH4 0xFFFFFFFF MUL NOT AND SWAP1 DUP4 PUSH1 0xE0 SHR MUL OR SWAP1 SSTORE POP PUSH1 0x40 MLOAD DUP1 PUSH1 0x40 ADD PUSH1 0x40 MSTORE DUP1 PUSH1 0x11 DUP2 MSTORE PUSH1 0x20 ADD PUSH32 0x66616B6546756E632875696E7432353629000000000000000000000000000000 DUP2 MSTORE POP DUP1 MLOAD SWAP1 PUSH1 0x20 ADD KECCAK256 PUSH1 0x0 PUSH1 0x4 PUSH2 0x100 EXP DUP2 SLOAD DUP2 PUSH4 0xFFFFFFFF MUL NOT AND SWAP1 DUP4 PUSH1 0xE0 SHR MUL OR SWAP1 SSTORE POP PUSH1 0x2 PUSH8 0xFFFFFFFFFFFFFFFF DUP2 GT ISZERO PUSH2 0x9D JUMPI PUSH2 0x9C PUSH2 0x15E JUMP JUMPDEST JUMPDEST PUSH1 0x40 MLOAD SWAP1 DUP1 DUP3 MSTORE DUP1 PUSH1 0x20 MUL PUSH1 0x20 ADD DUP3 ADD PUSH1 0x40 MSTORE DUP1 ISZERO PUSH2 0xCB JUMPI DUP2 PUSH1 0x20 ADD PUSH1 0x20 DUP3 MUL DUP1 CALLDATASIZE DUP4 CALLDATACOPY DUP1 DUP3 ADD SWAP2 POP POP SWAP1 POP JUMPDEST POP PUSH1 0x1 SWAP1 DUP1 MLOAD SWAP1 PUSH1 0x20 ADD SWAP1 PUSH2 0xE1 SWAP3 SWAP2 SWAP1 PUSH2 0xF4 JUMP JUMPDEST POP CALLVALUE DUP1 ISZERO PUSH2 0xEE JUMPI PUSH1 0x0 DUP1 REVERT JUMPDEST POP PUSH2 0x18D JUMP JUMPDEST DUP3 DUP1 SLOAD DUP3 DUP3 SSTORE SWAP1 PUSH1 0x0 MSTORE PUSH1 0x20 PUSH1 0x0 KECCAK256 SWAP1 DUP2 ADD SWAP3 DUP3 ISZERO PUSH2 0x130 JUMPI SWAP2 PUSH1 0x20 MUL DUP3 ADD JUMPDEST DUP3 DUP2 GT ISZERO PUSH2 0x12F JUMPI DUP3 MLOAD DUP3 SSTORE SWAP2 PUSH1 0x20 ADD SWAP2 SWAP1 PUSH1 0x1 ADD SWAP1 PUSH2 0x114 JUMP JUMPDEST JUMPDEST POP SWAP1 POP PUSH2 0x13D SWAP2 SWAP1 PUSH2 0x141 JUMP JUMPDEST POP SWAP1 JUMP JUMPDEST JUMPDEST DUP1 DUP3 GT ISZERO PUSH2 0x15A JUMPI PUSH1 0x0 DUP2 PUSH1 0x0 SWAP1 SSTORE POP PUSH1 0x1 ADD PUSH2 0x142 JUMP JUMPDEST POP SWAP1 JUMP JUMPDEST PUSH32 0x4E487B7100000000000000000000000000000000000000000000000000000000 PUSH1 0x0 MSTORE PUSH1 0x41 PUSH1 0x4 MSTORE PUSH1 0x24 PUSH1 0x0 REVERT JUMPDEST PUSH2 0x54C DUP1 PUSH2 0x19C PUSH1 0x0 CODECOPY PUSH1 0x0 RETURN INVALID PUSH1 0x80 PUSH1 0x40 MSTORE CALLVALUE DUP1 ISZERO PUSH2 0x10 JUMPI PUSH1 0x0 DUP1 REVERT JUMPDEST POP PUSH1 0x4 CALLDATASIZE LT PUSH2 0x57 JUMPI PUSH1 0x0 CALLDATALOAD PUSH1 0xE0 SHR DUP1 PUSH4 0x863DABB4 EQ PUSH2 0x5C JUMPI DUP1 PUSH4 0xB04BD97F EQ PUSH2 0x7A JUMPI DUP1 PUSH4 0xB923B370 EQ PUSH2 0x84 JUMPI DUP1 PUSH4 0xFD1EE54C EQ PUSH2 0xA2 JUMPI DUP1 PUSH4 0xFD60D284 EQ PUSH2 0xD2 JUMPI JUMPDEST PUSH1 0x0 DUP1 REVERT JUMPDEST PUSH2 0x64 PUSH2 0xDC JUMP JUMPDEST PUSH1 0x40 MLOAD PUSH2 0x71 SWAP2 SWAP1 PUSH2 0x36B JUMP JUMPDEST PUSH1 0x40 MLOAD DUP1 SWAP2 SUB SWAP1 RETURN JUMPDEST PUSH2 0x82 PUSH2 0xF4 JUMP JUMPDEST STOP JUMPDEST PUSH2 0x8C PUSH2 0x1F1 JUMP JUMPDEST PUSH1 0x40 MLOAD PUSH2 0x99 SWAP2 SWAP1 PUSH2 0x36B JUMP JUMPDEST PUSH1 0x40 MLOAD DUP1 SWAP2 SUB SWAP1 RETURN JUMPDEST PUSH2 0xBC PUSH1 0x4 DUP1 CALLDATASIZE SUB DUP2 ADD SWAP1 PUSH2 0xB7 SWAP2 SWAP1 PUSH2 0x3C1 JUMP JUMPDEST PUSH2 0x209 JUMP JUMPDEST PUSH1 0x40 MLOAD PUSH2 0xC9 SWAP2 SWAP1 PUSH2 0x3FD JUMP JUMPDEST PUSH1 0x40 MLOAD DUP1 SWAP2 SUB SWAP1 RETURN JUMPDEST PUSH2 0xDA PUSH2 0x22D JUMP JUMPDEST STOP JUMPDEST PUSH20 0x6DFC34609A05BC22319FA4CCE1D1E2929548C0D7 DUP2 JUMP JUMPDEST PUSH1 0x0 DUP1 PUSH20 0xB0EDA4F836AF0F8CA667700C42FCEFA0742AE2B5 PUSH20 0xFFFFFFFFFFFFFFFFFFFFFFFFFFFFFFFFFFFFFFFF AND PUSH4 0xA7C52D6E PUSH1 0xE0 SHL PUSH1 0x1 PUSH1 0x40 MLOAD PUSH1 0x24 ADD PUSH2 0x13C SWAP2 SWAP1 PUSH2 0x46A JUMP JUMPDEST PUSH1 0x40 MLOAD PUSH1 0x20 DUP2 DUP4 SUB SUB DUP2 MSTORE SWAP1 PUSH1 0x40 MSTORE SWAP1 PUSH28 0xFFFFFFFFFFFFFFFFFFFFFFFFFFFFFFFFFFFFFFFFFFFFFFFFFFFFFFFF NOT AND PUSH1 0x20 DUP3 ADD DUP1 MLOAD PUSH28 0xFFFFFFFFFFFFFFFFFFFFFFFFFFFFFFFFFFFFFFFFFFFFFFFFFFFFFFFF DUP4 DUP2 DUP4 AND OR DUP4 MSTORE POP POP POP POP PUSH1 0x40 MLOAD PUSH2 0x1A6 SWAP2 SWAP1 PUSH2 0x4FF JUMP JUMPDEST PUSH1 0x0 PUSH1 0x40 MLOAD DUP1 DUP4 SUB DUP2 PUSH1 0x0 DUP7 GAS CALL SWAP2 POP POP RETURNDATASIZE DUP1 PUSH1 0x0 DUP2 EQ PUSH2 0x1E3 JUMPI PUSH1 0x40 MLOAD SWAP2 POP PUSH1 0x1F NOT PUSH1 0x3F RETURNDATASIZE ADD AND DUP3 ADD PUSH1 0x40 MSTORE RETURNDATASIZE DUP3 MSTORE RETURNDATASIZE PUSH1 0x0 PUSH1 0x20 DUP5 ADD RETURNDATACOPY PUSH2 0x1E8 JUMP JUMPDEST PUSH1 0x60 SWAP2 POP JUMPDEST POP SWAP2 POP SWAP2 POP POP POP JUMP JUMPDEST PUSH20 0xB0EDA4F836AF0F8CA667700C42FCEFA0742AE2B5 DUP2 JUMP JUMPDEST PUSH1 0x1 DUP2 DUP2 SLOAD DUP2 LT PUSH2 0x219 JUMPI PUSH1 0x0 DUP1 REVERT JUMPDEST SWAP1 PUSH1 0x0 MSTORE PUSH1 0x20 PUSH1 0x0 KECCAK256 ADD PUSH1 0x0 SWAP2 POP SWAP1 POP SLOAD DUP2 JUMP JUMPDEST PUSH1 0x0 DUP1 PUSH20 0xB0EDA4F836AF0F8CA667700C42FCEFA0742AE2B5 PUSH20 0xFFFFFFFFFFFFFFFFFFFFFFFFFFFFFFFFFFFFFFFF AND PUSH4 0xA7C6047C PUSH1 0xE0 SHL PUSH1 0x1 PUSH1 0x40 MLOAD PUSH1 0x24 ADD PUSH2 0x275 SWAP2 SWAP1 PUSH2 0x46A JUMP JUMPDEST PUSH1 0x40 MLOAD PUSH1 0x20 DUP2 DUP4 SUB SUB DUP2 MSTORE SWAP1 PUSH1 0x40 MSTORE SWAP1 PUSH28 0xFFFFFFFFFFFFFFFFFFFFFFFFFFFFFFFFFFFFFFFFFFFFFFFFFFFFFFFF NOT AND PUSH1 0x20 DUP3 ADD DUP1 MLOAD PUSH28 0xFFFFFFFFFFFFFFFFFFFFFFFFFFFFFFFFFFFFFFFFFFFFFFFFFFFFFFFF DUP4 DUP2 DUP4 AND OR DUP4 MSTORE POP POP POP POP PUSH1 0x40 MLOAD PUSH2 0x2DF SWAP2 SWAP1 PUSH2 0x4FF JUMP JUMPDEST PUSH1 0x0 PUSH1 0x40 MLOAD DUP1 DUP4 SUB DUP2 PUSH1 0x0 DUP7 GAS CALL SWAP2 POP POP RETURNDATASIZE DUP1 PUSH1 0x0 DUP2 EQ PUSH2 0x31C JUMPI PUSH1 0x40 MLOAD SWAP2 POP PUSH1 0x1F NOT PUSH1 0x3F RETURNDATASIZE ADD AND DUP3 ADD PUSH1 0x40 MSTORE RETURNDATASIZE DUP3 MSTORE RETURNDATASIZE PUSH1 0x0 PUSH1 0x20 DUP5 ADD RETURNDATACOPY PUSH2 0x321 JUMP JUMPDEST PUSH1 0x60 SWAP2 POP JUMPDEST POP SWAP2 POP SWAP2 POP POP POP JUMP JUMPDEST PUSH1 0x0 PUSH20 0xFFFFFFFFFFFFFFFFFFFFFFFFFFFFFFFFFFFFFFFF DUP3 AND SWAP1 POP SWAP2 SWAP1 POP JUMP JUMPDEST PUSH1 0x0 PUSH2 0x355 DUP3 PUSH2 0x32A JUMP JUMPDEST SWAP1 POP SWAP2 SWAP1 POP JUMP JUMPDEST PUSH2 0x365 DUP2 PUSH2 0x34A JUMP JUMPDEST DUP3 MSTORE POP POP JUMP JUMPDEST PUSH1 0x0 PUSH1 0x20 DUP3 ADD SWAP1 POP PUSH2 0x380 PUSH1 0x0 DUP4 ADD DUP5 PUSH2 0x35C JUMP JUMPDEST SWAP3 SWAP2 POP POP JUMP JUMPDEST PUSH1 0x0 DUP1 REVERT JUMPDEST PUSH1 0x0 DUP2 SWAP1 POP SWAP2 SWAP1 POP JUMP JUMPDEST PUSH2 0x39E DUP2 PUSH2 0x38B JUMP JUMPDEST DUP2 EQ PUSH2 0x3A9 JUMPI PUSH1 0x0 DUP1 REVERT JUMPDEST POP JUMP JUMPDEST PUSH1 0x0 DUP2 CALLDATALOAD SWAP1 POP PUSH2 0x3BB DUP2 PUSH2 0x395 JUMP JUMPDEST SWAP3 SWAP2 POP POP JUMP JUMPDEST PUSH1 0x0 PUSH1 0x20 DUP3 DUP5 SUB SLT ISZERO PUSH2 0x3D7 JUMPI PUSH2 0x3D6 PUSH2 0x386 JUMP JUMPDEST JUMPDEST PUSH1 0x0 PUSH2 0x3E5 DUP5 DUP3 DUP6 ADD PUSH2 0x3AC JUMP JUMPDEST SWAP2 POP POP SWAP3 SWAP2 POP POP JUMP JUMPDEST PUSH2 0x3F7 DUP2 PUSH2 0x38B JUMP JUMPDEST DUP3 MSTORE POP POP JUMP JUMPDEST PUSH1 0x0 PUSH1 0x20 DUP3 ADD SWAP1 POP PUSH2 0x412 PUSH1 0x0 DUP4 ADD DUP5 PUSH2 0x3EE JUMP JUMPDEST SWAP3 SWAP2 POP POP JUMP JUMPDEST PUSH1 0x0 DUP2 SWAP1 POP SWAP2 SWAP1 POP JUMP JUMPDEST PUSH1 0x0 PUSH1 0xFF DUP3 AND SWAP1 POP SWAP2 SWAP1 POP JUMP JUMPDEST PUSH1 0x0 DUP2 SWAP1 POP SWAP2 SWAP1 POP JUMP JUMPDEST PUSH1 0x0 PUSH2 0x454 PUSH2 0x44F PUSH2 0x44A DUP5 PUSH2 0x418 JUMP JUMPDEST PUSH2 0x42F JUMP JUMPDEST PUSH2 0x422 JUMP JUMPDEST SWAP1 POP SWAP2 SWAP1 POP JUMP JUMPDEST PUSH2 0x464 DUP2 PUSH2 0x439 JUMP JUMPDEST DUP3 MSTORE POP POP JUMP JUMPDEST PUSH1 0x0 PUSH1 0x20 DUP3 ADD SWAP1 POP PUSH2 0x47F PUSH1 0x0 DUP4 ADD DUP5 PUSH2 0x45B JUMP JUMPDEST SWAP3 SWAP2 POP POP JUMP JUMPDEST PUSH1 0x0 DUP2 MLOAD SWAP1 POP SWAP2 SWAP1 POP JUMP JUMPDEST PUSH1 0x0 DUP2 SWAP1 POP SWAP3 SWAP2 POP POP JUMP JUMPDEST PUSH1 0x0 JUMPDEST DUP4 DUP2 LT ISZERO PUSH2 0x4B9 JUMPI DUP1 DUP3 ADD MLOAD DUP2 DUP5 ADD MSTORE PUSH1 0x20 DUP2 ADD SWAP1 POP PUSH2 0x49E JUMP JUMPDEST DUP4 DUP2 GT ISZERO PUSH2 0x4C8 JUMPI PUSH1 0x0 DUP5 DUP5 ADD MSTORE JUMPDEST POP POP POP POP JUMP JUMPDEST PUSH1 0x0 PUSH2 0x4D9 DUP3 PUSH2 0x485 JUMP JUMPDEST PUSH2 0x4E3 DUP2 DUP6 PUSH2 0x490 JUMP JUMPDEST SWAP4 POP PUSH2 0x4F3 DUP2 DUP6 PUSH1 0x20 DUP7 ADD PUSH2 0x49B JUMP JUMPDEST DUP1 DUP5 ADD SWAP2 POP POP SWAP3 SWAP2 POP POP JUMP JUMPDEST PUSH1 0x0 PUSH2 0x50B DUP3 DUP5 PUSH2 0x4CE JUMP JUMPDEST SWAP2 POP DUP2 SWAP1 POP SWAP3 SWAP2 POP POP JUMP INVALID LOG2 PUSH5 0x6970667358 0x22 SLT KECCAK256 PUSH11 0x831FCA6480582CE7A07D88 DUP10 0xE4 CALLCODE 0x2C LOG4 DUP5 PUSH17 0x62BFD6B48777919895161A3CF564736F6C PUSH4 0x4300080D STOP CALLER "
				},
				"gasEstimates": {
					"creation": {
						"codeDepositCost": "271200",
						"executionCost": "infinite",
						"totalCost": "infinite"
					},
					"external": {
						"CALLEE()": "400",
						"CALLER()": "356",
						"anotherDopeFunction()": "infinite",
						"dopeFunction()": "infinite",
						"nums(uint256)": "infinite"
					}
				},
				"methodIdentifiers": {
					"CALLEE()": "b923b370",
					"CALLER()": "863dabb4",
					"anotherDopeFunction()": "fd60d284",
					"dopeFunction()": "b04bd97f",
					"nums(uint256)": "fd1ee54c"
				}
			},
			"storageLayout": {
				"storage": [
					{
						"astId": 14,
						"contract": "Users/n2000/dev/seeds/test/mocks/call/MockCall4.sol:MockCall4",
						"label": "selector",
						"offset": 0,
						"slot": "0",
						"type": "t_bytes4"
					},
					{
						"astId": 25,
						"contract": "Users/n2000/dev/seeds/test/mocks/call/MockCall4.sol:MockCall4",
						"label": "anotherSelector",
						"offset": 4,
						"slot": "0",
						"type": "t_bytes4"
					},
					{
						"astId": 33,
						"contract": "Users/n2000/dev/seeds/test/mocks/call/MockCall4.sol:MockCall4",
						"label": "nums",
						"offset": 0,
						"slot": "1",
						"type": "t_array(t_uint256)dyn_storage"
					}
				],
				"types": {
					"t_array(t_uint256)dyn_storage": {
						"base": "t_uint256",
						"encoding": "dynamic_array",
						"label": "uint256[]",
						"numberOfBytes": "32"
					},
					"t_bytes4": {
						"encoding": "inplace",
						"label": "bytes4",
						"numberOfBytes": "4"
					},
					"t_uint256": {
						"encoding": "inplace",
						"label": "uint256",
						"numberOfBytes": "32"
					}
				}
			},
			"userdoc": {
				"kind": "user",
				"methods": {},
				"version": 1
			}
		}
	}
}