{
	"Users/n2000/dev/seeds/test/mocks/call/MockCall4.sol": {
		"MockCall4": {
			"abi": [
				{
					"inputs": [],
					"name": "CALLEE",
					"outputs": [
						{
							"internalType": "address",
							"name": "",
							"type": "address"
						}
					],
					"stateMutability": "view",
					"type": "function"
				},
				{
					"inputs": [],
					"name": "CALLER",
					"outputs": [
						{
							"internalType": "address",
							"name": "",
							"type": "address"
						}
					],
					"stateMutability": "view",
					"type": "function"
				},
				{
					"inputs": [],
					"name": "anotherDopeFunction",
					"outputs": [],
					"stateMutability": "nonpayable",
					"type": "function"
				},
				{
					"inputs": [],
					"name": "dopeFunction",
					"outputs": [],
					"stateMutability": "nonpayable",
					"type": "function"
				}
			],
			"devdoc": {
				"kind": "dev",
				"methods": {},
				"version": 1
			},
			"evm": {
				"assembly": "    /* \"Users/n2000/dev/seeds/test/mocks/call/MockCall4.sol\":114:979  contract MockCall4 {... */\n  mstore(0x40, 0x80)\n    /* \"Users/n2000/dev/seeds/test/mocks/call/MockCall4.sol\":377:405  MockCallee.coolFunc.selector */\n  shl(0xe0, 0xa7c6047c)\n    /* \"Users/n2000/dev/seeds/test/mocks/call/MockCall4.sol\":359:405  bytes4 selector = MockCallee.coolFunc.selector */\n  0x00\n  dup1\n  0x0100\n  exp\n  dup2\n  sload\n  dup2\n  0xffffffff\n  mul\n  not\n  and\n  swap1\n  dup4\n  0xe0\n  shr\n  mul\n  or\n  swap1\n  sstore\n  pop\n    /* \"Users/n2000/dev/seeds/test/mocks/call/MockCall4.sol\":453:479  bytes(\"fakeFunc(uint256)\") */\n  mload(0x40)\n  dup1\n  0x40\n  add\n  0x40\n  mstore\n  dup1\n  0x11\n  dup2\n  mstore\n  0x20\n  add\n  0x66616b6546756e632875696e7432353629000000000000000000000000000000\n  dup2\n  mstore\n  pop\n    /* \"Users/n2000/dev/seeds/test/mocks/call/MockCall4.sol\":443:480  keccak256(bytes(\"fakeFunc(uint256)\")) */\n  dup1\n  mload\n  swap1\n  0x20\n  add\n  keccak256\n    /* \"Users/n2000/dev/seeds/test/mocks/call/MockCall4.sol\":411:481  bytes4 anotherSelector = bytes4(keccak256(bytes(\"fakeFunc(uint256)\"))) */\n  0x00\n  exp(0x0100, 0x04)\n  dup2\n  sload\n  dup2\n  0xffffffff\n  mul\n  not\n  and\n  swap1\n  dup4\n  0xe0\n  shr\n  mul\n  or\n  swap1\n  sstore\n  pop\n    /* \"Users/n2000/dev/seeds/test/mocks/call/MockCall4.sol\":114:979  contract MockCall4 {... */\n  callvalue\n  dup1\n  iszero\n  tag_1\n  jumpi\n  0x00\n  dup1\n  revert\ntag_1:\n  pop\n  dataSize(sub_0)\n  dup1\n  dataOffset(sub_0)\n  0x00\n  codecopy\n  0x00\n  return\nstop\n\nsub_0: assembly {\n        /* \"Users/n2000/dev/seeds/test/mocks/call/MockCall4.sol\":114:979  contract MockCall4 {... */\n      mstore(0x40, 0x80)\n      callvalue\n      dup1\n      iszero\n      tag_1\n      jumpi\n      0x00\n      dup1\n      revert\n    tag_1:\n      pop\n      jumpi(tag_2, lt(calldatasize, 0x04))\n      shr(0xe0, calldataload(0x00))\n      dup1\n      0x863dabb4\n      eq\n      tag_3\n      jumpi\n      dup1\n      0xb04bd97f\n      eq\n      tag_4\n      jumpi\n      dup1\n      0xb923b370\n      eq\n      tag_5\n      jumpi\n      dup1\n      0xfd60d284\n      eq\n      tag_6\n      jumpi\n    tag_2:\n      0x00\n      dup1\n      revert\n        /* \"Users/n2000/dev/seeds/test/mocks/call/MockCall4.sol\":140:215  address public constant CALLER = 0x6dfc34609a05bC22319fA4Cce1d1E2929548c0D7 */\n    tag_3:\n      tag_7\n      tag_8\n      jump\t// in\n    tag_7:\n      mload(0x40)\n      tag_9\n      swap2\n      swap1\n      tag_10\n      jump\t// in\n    tag_9:\n      mload(0x40)\n      dup1\n      swap2\n      sub\n      swap1\n      return\n        /* \"Users/n2000/dev/seeds/test/mocks/call/MockCall4.sol\":492:728  function dopeFunction() public {... */\n    tag_4:\n      tag_11\n      tag_12\n      jump\t// in\n    tag_11:\n      stop\n        /* \"Users/n2000/dev/seeds/test/mocks/call/MockCall4.sol\":221:296  address public constant CALLEE = 0xb0EdA4f836aF0F8Ca667700c42fcEFA0742ae2B5 */\n    tag_5:\n      tag_13\n      tag_14\n      jump\t// in\n    tag_13:\n      mload(0x40)\n      tag_15\n      swap2\n      swap1\n      tag_10\n      jump\t// in\n    tag_15:\n      mload(0x40)\n      dup1\n      swap2\n      sub\n      swap1\n      return\n        /* \"Users/n2000/dev/seeds/test/mocks/call/MockCall4.sol\":734:977  function anotherDopeFunction() public {... */\n    tag_6:\n      tag_16\n      tag_17\n      jump\t// in\n    tag_16:\n      stop\n        /* \"Users/n2000/dev/seeds/test/mocks/call/MockCall4.sol\":140:215  address public constant CALLER = 0x6dfc34609a05bC22319fA4Cce1d1E2929548c0D7 */\n    tag_8:\n        /* \"Users/n2000/dev/seeds/test/mocks/call/MockCall4.sol\":173:215  0x6dfc34609a05bC22319fA4Cce1d1E2929548c0D7 */\n      0x6dfc34609a05bc22319fa4cce1d1e2929548c0d7\n        /* \"Users/n2000/dev/seeds/test/mocks/call/MockCall4.sol\":140:215  address public constant CALLER = 0x6dfc34609a05bC22319fA4Cce1d1E2929548c0D7 */\n      dup2\n      jump\t// out\n        /* \"Users/n2000/dev/seeds/test/mocks/call/MockCall4.sol\":492:728  function dopeFunction() public {... */\n    tag_12:\n        /* \"Users/n2000/dev/seeds/test/mocks/call/MockCall4.sol\":618:630  bool success */\n      0x00\n        /* \"Users/n2000/dev/seeds/test/mocks/call/MockCall4.sol\":632:649  bytes memory data */\n      dup1\n        /* \"Users/n2000/dev/seeds/test/mocks/call/MockCall4.sol\":254:296  0xb0EdA4f836aF0F8Ca667700c42fcEFA0742ae2B5 */\n      0xb0eda4f836af0f8ca667700c42fcefa0742ae2b5\n        /* \"Users/n2000/dev/seeds/test/mocks/call/MockCall4.sol\":653:664  CALLEE.call */\n      0xffffffffffffffffffffffffffffffffffffffff\n      and\n        /* \"Users/n2000/dev/seeds/test/mocks/call/MockCall4.sol\":688:716  MockCallee.niceFunc.selector */\n      shl(0xe0, 0xa7c52d6e)\n        /* \"Users/n2000/dev/seeds/test/mocks/call/MockCall4.sol\":718:719  1 */\n      0x01\n        /* \"Users/n2000/dev/seeds/test/mocks/call/MockCall4.sol\":665:720  abi.encodeWithSelector(MockCallee.niceFunc.selector, 1) */\n      add(0x24, mload(0x40))\n      tag_19\n      swap2\n      swap1\n      tag_20\n      jump\t// in\n    tag_19:\n      mload(0x40)\n      0x20\n      dup2\n      dup4\n      sub\n      sub\n      dup2\n      mstore\n      swap1\n      0x40\n      mstore\n      swap1\n      not(0xffffffffffffffffffffffffffffffffffffffffffffffffffffffff)\n      and\n      0x20\n      dup3\n      add\n      dup1\n      mload\n      0xffffffffffffffffffffffffffffffffffffffffffffffffffffffff\n      dup4\n      dup2\n      dup4\n      and\n      or\n      dup4\n      mstore\n      pop\n      pop\n      pop\n      pop\n        /* \"Users/n2000/dev/seeds/test/mocks/call/MockCall4.sol\":653:721  CALLEE.call(abi.encodeWithSelector(MockCallee.niceFunc.selector, 1)) */\n      mload(0x40)\n      tag_21\n      swap2\n      swap1\n      tag_22\n      jump\t// in\n    tag_21:\n      0x00\n      mload(0x40)\n      dup1\n      dup4\n      sub\n      dup2\n      0x00\n      dup7\n      gas\n      call\n      swap2\n      pop\n      pop\n      returndatasize\n      dup1\n      0x00\n      dup2\n      eq\n      tag_25\n      jumpi\n      mload(0x40)\n      swap2\n      pop\n      and(add(returndatasize, 0x3f), not(0x1f))\n      dup3\n      add\n      0x40\n      mstore\n      returndatasize\n      dup3\n      mstore\n      returndatasize\n      0x00\n      0x20\n      dup5\n      add\n      returndatacopy\n      jump(tag_24)\n    tag_25:\n      0x60\n      swap2\n      pop\n    tag_24:\n      pop\n        /* \"Users/n2000/dev/seeds/test/mocks/call/MockCall4.sol\":617:721  (bool success, bytes memory data) = CALLEE.call(abi.encodeWithSelector(MockCallee.niceFunc.selector, 1)) */\n      swap2\n      pop\n      swap2\n      pop\n        /* \"Users/n2000/dev/seeds/test/mocks/call/MockCall4.sol\":523:728  {... */\n      pop\n      pop\n        /* \"Users/n2000/dev/seeds/test/mocks/call/MockCall4.sol\":492:728  function dopeFunction() public {... */\n      jump\t// out\n        /* \"Users/n2000/dev/seeds/test/mocks/call/MockCall4.sol\":221:296  address public constant CALLEE = 0xb0EdA4f836aF0F8Ca667700c42fcEFA0742ae2B5 */\n    tag_14:\n        /* \"Users/n2000/dev/seeds/test/mocks/call/MockCall4.sol\":254:296  0xb0EdA4f836aF0F8Ca667700c42fcEFA0742ae2B5 */\n      0xb0eda4f836af0f8ca667700c42fcefa0742ae2b5\n        /* \"Users/n2000/dev/seeds/test/mocks/call/MockCall4.sol\":221:296  address public constant CALLEE = 0xb0EdA4f836aF0F8Ca667700c42fcEFA0742ae2B5 */\n      dup2\n      jump\t// out\n        /* \"Users/n2000/dev/seeds/test/mocks/call/MockCall4.sol\":734:977  function anotherDopeFunction() public {... */\n    tag_17:\n        /* \"Users/n2000/dev/seeds/test/mocks/call/MockCall4.sol\":867:879  bool success */\n      0x00\n        /* \"Users/n2000/dev/seeds/test/mocks/call/MockCall4.sol\":881:898  bytes memory data */\n      dup1\n        /* \"Users/n2000/dev/seeds/test/mocks/call/MockCall4.sol\":254:296  0xb0EdA4f836aF0F8Ca667700c42fcEFA0742ae2B5 */\n      0xb0eda4f836af0f8ca667700c42fcefa0742ae2b5\n        /* \"Users/n2000/dev/seeds/test/mocks/call/MockCall4.sol\":902:913  CALLEE.call */\n      0xffffffffffffffffffffffffffffffffffffffff\n      and\n        /* \"Users/n2000/dev/seeds/test/mocks/call/MockCall4.sol\":937:965  MockCallee.coolFunc.selector */\n      shl(0xe0, 0xa7c6047c)\n        /* \"Users/n2000/dev/seeds/test/mocks/call/MockCall4.sol\":967:968  1 */\n      0x01\n        /* \"Users/n2000/dev/seeds/test/mocks/call/MockCall4.sol\":914:969  abi.encodeWithSelector(MockCallee.coolFunc.selector, 1) */\n      add(0x24, mload(0x40))\n      tag_27\n      swap2\n      swap1\n      tag_20\n      jump\t// in\n    tag_27:\n      mload(0x40)\n      0x20\n      dup2\n      dup4\n      sub\n      sub\n      dup2\n      mstore\n      swap1\n      0x40\n      mstore\n      swap1\n      not(0xffffffffffffffffffffffffffffffffffffffffffffffffffffffff)\n      and\n      0x20\n      dup3\n      add\n      dup1\n      mload\n      0xffffffffffffffffffffffffffffffffffffffffffffffffffffffff\n      dup4\n      dup2\n      dup4\n      and\n      or\n      dup4\n      mstore\n      pop\n      pop\n      pop\n      pop\n        /* \"Users/n2000/dev/seeds/test/mocks/call/MockCall4.sol\":902:970  CALLEE.call(abi.encodeWithSelector(MockCallee.coolFunc.selector, 1)) */\n      mload(0x40)\n      tag_28\n      swap2\n      swap1\n      tag_22\n      jump\t// in\n    tag_28:\n      0x00\n      mload(0x40)\n      dup1\n      dup4\n      sub\n      dup2\n      0x00\n      dup7\n      gas\n      call\n      swap2\n      pop\n      pop\n      returndatasize\n      dup1\n      0x00\n      dup2\n      eq\n      tag_31\n      jumpi\n      mload(0x40)\n      swap2\n      pop\n      and(add(returndatasize, 0x3f), not(0x1f))\n      dup3\n      add\n      0x40\n      mstore\n      returndatasize\n      dup3\n      mstore\n      returndatasize\n      0x00\n      0x20\n      dup5\n      add\n      returndatacopy\n      jump(tag_30)\n    tag_31:\n      0x60\n      swap2\n      pop\n    tag_30:\n      pop\n        /* \"Users/n2000/dev/seeds/test/mocks/call/MockCall4.sol\":866:970  (bool success, bytes memory data) = CALLEE.call(abi.encodeWithSelector(MockCallee.coolFunc.selector, 1)) */\n      swap2\n      pop\n      swap2\n      pop\n        /* \"Users/n2000/dev/seeds/test/mocks/call/MockCall4.sol\":772:977  {... */\n      pop\n      pop\n        /* \"Users/n2000/dev/seeds/test/mocks/call/MockCall4.sol\":734:977  function anotherDopeFunction() public {... */\n      jump\t// out\n        /* \"#utility.yul\":7:133   */\n    tag_32:\n        /* \"#utility.yul\":44:51   */\n      0x00\n        /* \"#utility.yul\":84:126   */\n      0xffffffffffffffffffffffffffffffffffffffff\n        /* \"#utility.yul\":77:82   */\n      dup3\n        /* \"#utility.yul\":73:127   */\n      and\n        /* \"#utility.yul\":62:127   */\n      swap1\n      pop\n        /* \"#utility.yul\":7:133   */\n      swap2\n      swap1\n      pop\n      jump\t// out\n        /* \"#utility.yul\":139:235   */\n    tag_33:\n        /* \"#utility.yul\":176:183   */\n      0x00\n        /* \"#utility.yul\":205:229   */\n      tag_47\n        /* \"#utility.yul\":223:228   */\n      dup3\n        /* \"#utility.yul\":205:229   */\n      tag_32\n      jump\t// in\n    tag_47:\n        /* \"#utility.yul\":194:229   */\n      swap1\n      pop\n        /* \"#utility.yul\":139:235   */\n      swap2\n      swap1\n      pop\n      jump\t// out\n        /* \"#utility.yul\":241:359   */\n    tag_34:\n        /* \"#utility.yul\":328:352   */\n      tag_49\n        /* \"#utility.yul\":346:351   */\n      dup2\n        /* \"#utility.yul\":328:352   */\n      tag_33\n      jump\t// in\n    tag_49:\n        /* \"#utility.yul\":323:326   */\n      dup3\n        /* \"#utility.yul\":316:353   */\n      mstore\n        /* \"#utility.yul\":241:359   */\n      pop\n      pop\n      jump\t// out\n        /* \"#utility.yul\":365:587   */\n    tag_10:\n        /* \"#utility.yul\":458:462   */\n      0x00\n        /* \"#utility.yul\":496:498   */\n      0x20\n        /* \"#utility.yul\":485:494   */\n      dup3\n        /* \"#utility.yul\":481:499   */\n      add\n        /* \"#utility.yul\":473:499   */\n      swap1\n      pop\n        /* \"#utility.yul\":509:580   */\n      tag_51\n        /* \"#utility.yul\":577:578   */\n      0x00\n        /* \"#utility.yul\":566:575   */\n      dup4\n        /* \"#utility.yul\":562:579   */\n      add\n        /* \"#utility.yul\":553:559   */\n      dup5\n        /* \"#utility.yul\":509:580   */\n      tag_34\n      jump\t// in\n    tag_51:\n        /* \"#utility.yul\":365:587   */\n      swap3\n      swap2\n      pop\n      pop\n      jump\t// out\n        /* \"#utility.yul\":593:678   */\n    tag_35:\n        /* \"#utility.yul\":638:645   */\n      0x00\n        /* \"#utility.yul\":667:672   */\n      dup2\n        /* \"#utility.yul\":656:672   */\n      swap1\n      pop\n        /* \"#utility.yul\":593:678   */\n      swap2\n      swap1\n      pop\n      jump\t// out\n        /* \"#utility.yul\":684:770   */\n    tag_36:\n        /* \"#utility.yul\":719:726   */\n      0x00\n        /* \"#utility.yul\":759:763   */\n      0xff\n        /* \"#utility.yul\":752:757   */\n      dup3\n        /* \"#utility.yul\":748:764   */\n      and\n        /* \"#utility.yul\":737:764   */\n      swap1\n      pop\n        /* \"#utility.yul\":684:770   */\n      swap2\n      swap1\n      pop\n      jump\t// out\n        /* \"#utility.yul\":776:836   */\n    tag_37:\n        /* \"#utility.yul\":804:807   */\n      0x00\n        /* \"#utility.yul\":825:830   */\n      dup2\n        /* \"#utility.yul\":818:830   */\n      swap1\n      pop\n        /* \"#utility.yul\":776:836   */\n      swap2\n      swap1\n      pop\n      jump\t// out\n        /* \"#utility.yul\":842:996   */\n    tag_38:\n        /* \"#utility.yul\":898:907   */\n      0x00\n        /* \"#utility.yul\":931:990   */\n      tag_56\n        /* \"#utility.yul\":947:989   */\n      tag_57\n        /* \"#utility.yul\":956:988   */\n      tag_58\n        /* \"#utility.yul\":982:987   */\n      dup5\n        /* \"#utility.yul\":956:988   */\n      tag_35\n      jump\t// in\n    tag_58:\n        /* \"#utility.yul\":947:989   */\n      tag_37\n      jump\t// in\n    tag_57:\n        /* \"#utility.yul\":931:990   */\n      tag_36\n      jump\t// in\n    tag_56:\n        /* \"#utility.yul\":918:990   */\n      swap1\n      pop\n        /* \"#utility.yul\":842:996   */\n      swap2\n      swap1\n      pop\n      jump\t// out\n        /* \"#utility.yul\":1002:1145   */\n    tag_39:\n        /* \"#utility.yul\":1095:1138   */\n      tag_60\n        /* \"#utility.yul\":1132:1137   */\n      dup2\n        /* \"#utility.yul\":1095:1138   */\n      tag_38\n      jump\t// in\n    tag_60:\n        /* \"#utility.yul\":1090:1093   */\n      dup3\n        /* \"#utility.yul\":1083:1139   */\n      mstore\n        /* \"#utility.yul\":1002:1145   */\n      pop\n      pop\n      jump\t// out\n        /* \"#utility.yul\":1151:1385   */\n    tag_20:\n        /* \"#utility.yul\":1250:1254   */\n      0x00\n        /* \"#utility.yul\":1288:1290   */\n      0x20\n        /* \"#utility.yul\":1277:1286   */\n      dup3\n        /* \"#utility.yul\":1273:1291   */\n      add\n        /* \"#utility.yul\":1265:1291   */\n      swap1\n      pop\n        /* \"#utility.yul\":1301:1378   */\n      tag_62\n        /* \"#utility.yul\":1375:1376   */\n      0x00\n        /* \"#utility.yul\":1364:1373   */\n      dup4\n        /* \"#utility.yul\":1360:1377   */\n      add\n        /* \"#utility.yul\":1351:1357   */\n      dup5\n        /* \"#utility.yul\":1301:1378   */\n      tag_39\n      jump\t// in\n    tag_62:\n        /* \"#utility.yul\":1151:1385   */\n      swap3\n      swap2\n      pop\n      pop\n      jump\t// out\n        /* \"#utility.yul\":1391:1489   */\n    tag_40:\n        /* \"#utility.yul\":1442:1448   */\n      0x00\n        /* \"#utility.yul\":1476:1481   */\n      dup2\n        /* \"#utility.yul\":1470:1482   */\n      mload\n        /* \"#utility.yul\":1460:1482   */\n      swap1\n      pop\n        /* \"#utility.yul\":1391:1489   */\n      swap2\n      swap1\n      pop\n      jump\t// out\n        /* \"#utility.yul\":1495:1642   */\n    tag_41:\n        /* \"#utility.yul\":1596:1607   */\n      0x00\n        /* \"#utility.yul\":1633:1636   */\n      dup2\n        /* \"#utility.yul\":1618:1636   */\n      swap1\n      pop\n        /* \"#utility.yul\":1495:1642   */\n      swap3\n      swap2\n      pop\n      pop\n      jump\t// out\n        /* \"#utility.yul\":1648:1955   */\n    tag_42:\n        /* \"#utility.yul\":1716:1717   */\n      0x00\n        /* \"#utility.yul\":1726:1839   */\n    tag_66:\n        /* \"#utility.yul\":1740:1746   */\n      dup4\n        /* \"#utility.yul\":1737:1738   */\n      dup2\n        /* \"#utility.yul\":1734:1747   */\n      lt\n        /* \"#utility.yul\":1726:1839   */\n      iszero\n      tag_68\n      jumpi\n        /* \"#utility.yul\":1825:1826   */\n      dup1\n        /* \"#utility.yul\":1820:1823   */\n      dup3\n        /* \"#utility.yul\":1816:1827   */\n      add\n        /* \"#utility.yul\":1810:1828   */\n      mload\n        /* \"#utility.yul\":1806:1807   */\n      dup2\n        /* \"#utility.yul\":1801:1804   */\n      dup5\n        /* \"#utility.yul\":1797:1808   */\n      add\n        /* \"#utility.yul\":1790:1829   */\n      mstore\n        /* \"#utility.yul\":1762:1764   */\n      0x20\n        /* \"#utility.yul\":1759:1760   */\n      dup2\n        /* \"#utility.yul\":1755:1765   */\n      add\n        /* \"#utility.yul\":1750:1765   */\n      swap1\n      pop\n        /* \"#utility.yul\":1726:1839   */\n      jump(tag_66)\n    tag_68:\n        /* \"#utility.yul\":1857:1863   */\n      dup4\n        /* \"#utility.yul\":1854:1855   */\n      dup2\n        /* \"#utility.yul\":1851:1864   */\n      gt\n        /* \"#utility.yul\":1848:1949   */\n      iszero\n      tag_69\n      jumpi\n        /* \"#utility.yul\":1937:1938   */\n      0x00\n        /* \"#utility.yul\":1928:1934   */\n      dup5\n        /* \"#utility.yul\":1923:1926   */\n      dup5\n        /* \"#utility.yul\":1919:1935   */\n      add\n        /* \"#utility.yul\":1912:1939   */\n      mstore\n        /* \"#utility.yul\":1848:1949   */\n    tag_69:\n        /* \"#utility.yul\":1697:1955   */\n      pop\n        /* \"#utility.yul\":1648:1955   */\n      pop\n      pop\n      pop\n      jump\t// out\n        /* \"#utility.yul\":1961:2334   */\n    tag_43:\n        /* \"#utility.yul\":2065:2068   */\n      0x00\n        /* \"#utility.yul\":2093:2131   */\n      tag_71\n        /* \"#utility.yul\":2125:2130   */\n      dup3\n        /* \"#utility.yul\":2093:2131   */\n      tag_40\n      jump\t// in\n    tag_71:\n        /* \"#utility.yul\":2147:2235   */\n      tag_72\n        /* \"#utility.yul\":2228:2234   */\n      dup2\n        /* \"#utility.yul\":2223:2226   */\n      dup6\n        /* \"#utility.yul\":2147:2235   */\n      tag_41\n      jump\t// in\n    tag_72:\n        /* \"#utility.yul\":2140:2235   */\n      swap4\n      pop\n        /* \"#utility.yul\":2244:2296   */\n      tag_73\n        /* \"#utility.yul\":2289:2295   */\n      dup2\n        /* \"#utility.yul\":2284:2287   */\n      dup6\n        /* \"#utility.yul\":2277:2281   */\n      0x20\n        /* \"#utility.yul\":2270:2275   */\n      dup7\n        /* \"#utility.yul\":2266:2282   */\n      add\n        /* \"#utility.yul\":2244:2296   */\n      tag_42\n      jump\t// in\n    tag_73:\n        /* \"#utility.yul\":2321:2327   */\n      dup1\n        /* \"#utility.yul\":2316:2319   */\n      dup5\n        /* \"#utility.yul\":2312:2328   */\n      add\n        /* \"#utility.yul\":2305:2328   */\n      swap2\n      pop\n        /* \"#utility.yul\":2069:2334   */\n      pop\n        /* \"#utility.yul\":1961:2334   */\n      swap3\n      swap2\n      pop\n      pop\n      jump\t// out\n        /* \"#utility.yul\":2340:2611   */\n    tag_22:\n        /* \"#utility.yul\":2470:2473   */\n      0x00\n        /* \"#utility.yul\":2492:2585   */\n      tag_75\n        /* \"#utility.yul\":2581:2584   */\n      dup3\n        /* \"#utility.yul\":2572:2578   */\n      dup5\n        /* \"#utility.yul\":2492:2585   */\n      tag_43\n      jump\t// in\n    tag_75:\n        /* \"#utility.yul\":2485:2585   */\n      swap2\n      pop\n        /* \"#utility.yul\":2602:2605   */\n      dup2\n        /* \"#utility.yul\":2595:2605   */\n      swap1\n      pop\n        /* \"#utility.yul\":2340:2611   */\n      swap3\n      swap2\n      pop\n      pop\n      jump\t// out\n\n    auxdata: 0xa264697066735822122075aeb06c607e63d8659644c39c1c7ac017237e083414055820b4a1252cffae4f64736f6c634300080d0033\n}\n",
				"bytecode": {
					"linkReferences": {},
					"object": "608060405263a7c6047c60e01b6000806101000a81548163ffffffff021916908360e01c02179055506040518060400160405280601181526020017f66616b6546756e632875696e743235362900000000000000000000000000000081525080519060200120600060046101000a81548163ffffffff021916908360e01c021790555034801561008e57600080fd5b5061045b8061009e6000396000f3fe608060405234801561001057600080fd5b506004361061004c5760003560e01c8063863dabb414610051578063b04bd97f1461006f578063b923b37014610079578063fd60d28414610097575b600080fd5b6100596100a1565b604051610066919061030c565b60405180910390f35b6100776100b9565b005b6100816101b6565b60405161008e919061030c565b60405180910390f35b61009f6101ce565b005b736dfc34609a05bc22319fa4cce1d1e2929548c0d781565b60008073b0eda4f836af0f8ca667700c42fcefa0742ae2b573ffffffffffffffffffffffffffffffffffffffff1663a7c52d6e60e01b60016040516024016101019190610379565b604051602081830303815290604052907bffffffffffffffffffffffffffffffffffffffffffffffffffffffff19166020820180517bffffffffffffffffffffffffffffffffffffffffffffffffffffffff838183161783525050505060405161016b919061040e565b6000604051808303816000865af19150503d80600081146101a8576040519150601f19603f3d011682016040523d82523d6000602084013e6101ad565b606091505b50915091505050565b73b0eda4f836af0f8ca667700c42fcefa0742ae2b581565b60008073b0eda4f836af0f8ca667700c42fcefa0742ae2b573ffffffffffffffffffffffffffffffffffffffff1663a7c6047c60e01b60016040516024016102169190610379565b604051602081830303815290604052907bffffffffffffffffffffffffffffffffffffffffffffffffffffffff19166020820180517bffffffffffffffffffffffffffffffffffffffffffffffffffffffff8381831617835250505050604051610280919061040e565b6000604051808303816000865af19150503d80600081146102bd576040519150601f19603f3d011682016040523d82523d6000602084013e6102c2565b606091505b50915091505050565b600073ffffffffffffffffffffffffffffffffffffffff82169050919050565b60006102f6826102cb565b9050919050565b610306816102eb565b82525050565b600060208201905061032160008301846102fd565b92915050565b6000819050919050565b600060ff82169050919050565b6000819050919050565b600061036361035e61035984610327565b61033e565b610331565b9050919050565b61037381610348565b82525050565b600060208201905061038e600083018461036a565b92915050565b600081519050919050565b600081905092915050565b60005b838110156103c85780820151818401526020810190506103ad565b838111156103d7576000848401525b50505050565b60006103e882610394565b6103f2818561039f565b93506104028185602086016103aa565b80840191505092915050565b600061041a82846103dd565b91508190509291505056fea264697066735822122075aeb06c607e63d8659644c39c1c7ac017237e083414055820b4a1252cffae4f64736f6c634300080d0033",
					"opcodes": "PUSH1 0x80 PUSH1 0x40 MSTORE PUSH4 0xA7C6047C PUSH1 0xE0 SHL PUSH1 0x0 DUP1 PUSH2 0x100 EXP DUP2 SLOAD DUP2 PUSH4 0xFFFFFFFF MUL NOT AND SWAP1 DUP4 PUSH1 0xE0 SHR MUL OR SWAP1 SSTORE POP PUSH1 0x40 MLOAD DUP1 PUSH1 0x40 ADD PUSH1 0x40 MSTORE DUP1 PUSH1 0x11 DUP2 MSTORE PUSH1 0x20 ADD PUSH32 0x66616B6546756E632875696E7432353629000000000000000000000000000000 DUP2 MSTORE POP DUP1 MLOAD SWAP1 PUSH1 0x20 ADD KECCAK256 PUSH1 0x0 PUSH1 0x4 PUSH2 0x100 EXP DUP2 SLOAD DUP2 PUSH4 0xFFFFFFFF MUL NOT AND SWAP1 DUP4 PUSH1 0xE0 SHR MUL OR SWAP1 SSTORE POP CALLVALUE DUP1 ISZERO PUSH2 0x8E JUMPI PUSH1 0x0 DUP1 REVERT JUMPDEST POP PUSH2 0x45B DUP1 PUSH2 0x9E PUSH1 0x0 CODECOPY PUSH1 0x0 RETURN INVALID PUSH1 0x80 PUSH1 0x40 MSTORE CALLVALUE DUP1 ISZERO PUSH2 0x10 JUMPI PUSH1 0x0 DUP1 REVERT JUMPDEST POP PUSH1 0x4 CALLDATASIZE LT PUSH2 0x4C JUMPI PUSH1 0x0 CALLDATALOAD PUSH1 0xE0 SHR DUP1 PUSH4 0x863DABB4 EQ PUSH2 0x51 JUMPI DUP1 PUSH4 0xB04BD97F EQ PUSH2 0x6F JUMPI DUP1 PUSH4 0xB923B370 EQ PUSH2 0x79 JUMPI DUP1 PUSH4 0xFD60D284 EQ PUSH2 0x97 JUMPI JUMPDEST PUSH1 0x0 DUP1 REVERT JUMPDEST PUSH2 0x59 PUSH2 0xA1 JUMP JUMPDEST PUSH1 0x40 MLOAD PUSH2 0x66 SWAP2 SWAP1 PUSH2 0x30C JUMP JUMPDEST PUSH1 0x40 MLOAD DUP1 SWAP2 SUB SWAP1 RETURN JUMPDEST PUSH2 0x77 PUSH2 0xB9 JUMP JUMPDEST STOP JUMPDEST PUSH2 0x81 PUSH2 0x1B6 JUMP JUMPDEST PUSH1 0x40 MLOAD PUSH2 0x8E SWAP2 SWAP1 PUSH2 0x30C JUMP JUMPDEST PUSH1 0x40 MLOAD DUP1 SWAP2 SUB SWAP1 RETURN JUMPDEST PUSH2 0x9F PUSH2 0x1CE JUMP JUMPDEST STOP JUMPDEST PUSH20 0x6DFC34609A05BC22319FA4CCE1D1E2929548C0D7 DUP2 JUMP JUMPDEST PUSH1 0x0 DUP1 PUSH20 0xB0EDA4F836AF0F8CA667700C42FCEFA0742AE2B5 PUSH20 0xFFFFFFFFFFFFFFFFFFFFFFFFFFFFFFFFFFFFFFFF AND PUSH4 0xA7C52D6E PUSH1 0xE0 SHL PUSH1 0x1 PUSH1 0x40 MLOAD PUSH1 0x24 ADD PUSH2 0x101 SWAP2 SWAP1 PUSH2 0x379 JUMP JUMPDEST PUSH1 0x40 MLOAD PUSH1 0x20 DUP2 DUP4 SUB SUB DUP2 MSTORE SWAP1 PUSH1 0x40 MSTORE SWAP1 PUSH28 0xFFFFFFFFFFFFFFFFFFFFFFFFFFFFFFFFFFFFFFFFFFFFFFFFFFFFFFFF NOT AND PUSH1 0x20 DUP3 ADD DUP1 MLOAD PUSH28 0xFFFFFFFFFFFFFFFFFFFFFFFFFFFFFFFFFFFFFFFFFFFFFFFFFFFFFFFF DUP4 DUP2 DUP4 AND OR DUP4 MSTORE POP POP POP POP PUSH1 0x40 MLOAD PUSH2 0x16B SWAP2 SWAP1 PUSH2 0x40E JUMP JUMPDEST PUSH1 0x0 PUSH1 0x40 MLOAD DUP1 DUP4 SUB DUP2 PUSH1 0x0 DUP7 GAS CALL SWAP2 POP POP RETURNDATASIZE DUP1 PUSH1 0x0 DUP2 EQ PUSH2 0x1A8 JUMPI PUSH1 0x40 MLOAD SWAP2 POP PUSH1 0x1F NOT PUSH1 0x3F RETURNDATASIZE ADD AND DUP3 ADD PUSH1 0x40 MSTORE RETURNDATASIZE DUP3 MSTORE RETURNDATASIZE PUSH1 0x0 PUSH1 0x20 DUP5 ADD RETURNDATACOPY PUSH2 0x1AD JUMP JUMPDEST PUSH1 0x60 SWAP2 POP JUMPDEST POP SWAP2 POP SWAP2 POP POP POP JUMP JUMPDEST PUSH20 0xB0EDA4F836AF0F8CA667700C42FCEFA0742AE2B5 DUP2 JUMP JUMPDEST PUSH1 0x0 DUP1 PUSH20 0xB0EDA4F836AF0F8CA667700C42FCEFA0742AE2B5 PUSH20 0xFFFFFFFFFFFFFFFFFFFFFFFFFFFFFFFFFFFFFFFF AND PUSH4 0xA7C6047C PUSH1 0xE0 SHL PUSH1 0x1 PUSH1 0x40 MLOAD PUSH1 0x24 ADD PUSH2 0x216 SWAP2 SWAP1 PUSH2 0x379 JUMP JUMPDEST PUSH1 0x40 MLOAD PUSH1 0x20 DUP2 DUP4 SUB SUB DUP2 MSTORE SWAP1 PUSH1 0x40 MSTORE SWAP1 PUSH28 0xFFFFFFFFFFFFFFFFFFFFFFFFFFFFFFFFFFFFFFFFFFFFFFFFFFFFFFFF NOT AND PUSH1 0x20 DUP3 ADD DUP1 MLOAD PUSH28 0xFFFFFFFFFFFFFFFFFFFFFFFFFFFFFFFFFFFFFFFFFFFFFFFFFFFFFFFF DUP4 DUP2 DUP4 AND OR DUP4 MSTORE POP POP POP POP PUSH1 0x40 MLOAD PUSH2 0x280 SWAP2 SWAP1 PUSH2 0x40E JUMP JUMPDEST PUSH1 0x0 PUSH1 0x40 MLOAD DUP1 DUP4 SUB DUP2 PUSH1 0x0 DUP7 GAS CALL SWAP2 POP POP RETURNDATASIZE DUP1 PUSH1 0x0 DUP2 EQ PUSH2 0x2BD JUMPI PUSH1 0x40 MLOAD SWAP2 POP PUSH1 0x1F NOT PUSH1 0x3F RETURNDATASIZE ADD AND DUP3 ADD PUSH1 0x40 MSTORE RETURNDATASIZE DUP3 MSTORE RETURNDATASIZE PUSH1 0x0 PUSH1 0x20 DUP5 ADD RETURNDATACOPY PUSH2 0x2C2 JUMP JUMPDEST PUSH1 0x60 SWAP2 POP JUMPDEST POP SWAP2 POP SWAP2 POP POP POP JUMP JUMPDEST PUSH1 0x0 PUSH20 0xFFFFFFFFFFFFFFFFFFFFFFFFFFFFFFFFFFFFFFFF DUP3 AND SWAP1 POP SWAP2 SWAP1 POP JUMP JUMPDEST PUSH1 0x0 PUSH2 0x2F6 DUP3 PUSH2 0x2CB JUMP JUMPDEST SWAP1 POP SWAP2 SWAP1 POP JUMP JUMPDEST PUSH2 0x306 DUP2 PUSH2 0x2EB JUMP JUMPDEST DUP3 MSTORE POP POP JUMP JUMPDEST PUSH1 0x0 PUSH1 0x20 DUP3 ADD SWAP1 POP PUSH2 0x321 PUSH1 0x0 DUP4 ADD DUP5 PUSH2 0x2FD JUMP JUMPDEST SWAP3 SWAP2 POP POP JUMP JUMPDEST PUSH1 0x0 DUP2 SWAP1 POP SWAP2 SWAP1 POP JUMP JUMPDEST PUSH1 0x0 PUSH1 0xFF DUP3 AND SWAP1 POP SWAP2 SWAP1 POP JUMP JUMPDEST PUSH1 0x0 DUP2 SWAP1 POP SWAP2 SWAP1 POP JUMP JUMPDEST PUSH1 0x0 PUSH2 0x363 PUSH2 0x35E PUSH2 0x359 DUP5 PUSH2 0x327 JUMP JUMPDEST PUSH2 0x33E JUMP JUMPDEST PUSH2 0x331 JUMP JUMPDEST SWAP1 POP SWAP2 SWAP1 POP JUMP JUMPDEST PUSH2 0x373 DUP2 PUSH2 0x348 JUMP JUMPDEST DUP3 MSTORE POP POP JUMP JUMPDEST PUSH1 0x0 PUSH1 0x20 DUP3 ADD SWAP1 POP PUSH2 0x38E PUSH1 0x0 DUP4 ADD DUP5 PUSH2 0x36A JUMP JUMPDEST SWAP3 SWAP2 POP POP JUMP JUMPDEST PUSH1 0x0 DUP2 MLOAD SWAP1 POP SWAP2 SWAP1 POP JUMP JUMPDEST PUSH1 0x0 DUP2 SWAP1 POP SWAP3 SWAP2 POP POP JUMP JUMPDEST PUSH1 0x0 JUMPDEST DUP4 DUP2 LT ISZERO PUSH2 0x3C8 JUMPI DUP1 DUP3 ADD MLOAD DUP2 DUP5 ADD MSTORE PUSH1 0x20 DUP2 ADD SWAP1 POP PUSH2 0x3AD JUMP JUMPDEST DUP4 DUP2 GT ISZERO PUSH2 0x3D7 JUMPI PUSH1 0x0 DUP5 DUP5 ADD MSTORE JUMPDEST POP POP POP POP JUMP JUMPDEST PUSH1 0x0 PUSH2 0x3E8 DUP3 PUSH2 0x394 JUMP JUMPDEST PUSH2 0x3F2 DUP2 DUP6 PUSH2 0x39F JUMP JUMPDEST SWAP4 POP PUSH2 0x402 DUP2 DUP6 PUSH1 0x20 DUP7 ADD PUSH2 0x3AA JUMP JUMPDEST DUP1 DUP5 ADD SWAP2 POP POP SWAP3 SWAP2 POP POP JUMP JUMPDEST PUSH1 0x0 PUSH2 0x41A DUP3 DUP5 PUSH2 0x3DD JUMP JUMPDEST SWAP2 POP DUP2 SWAP1 POP SWAP3 SWAP2 POP POP JUMP INVALID LOG2 PUSH5 0x6970667358 0x22 SLT KECCAK256 PUSH22 0xAEB06C607E63D8659644C39C1C7AC017237E08341405 PC KECCAK256 0xB4 LOG1 0x25 0x2C SELFDESTRUCT 0xAE 0x4F PUSH5 0x736F6C6343 STOP ADDMOD 0xD STOP CALLER "
				},
				"gasEstimates": {
					"creation": {
						"codeDepositCost": "223000",
						"executionCost": "48951",
						"totalCost": "271951"
					},
					"external": {
						"CALLEE()": "400",
						"CALLER()": "356",
						"anotherDopeFunction()": "infinite",
						"dopeFunction()": "infinite"
					}
				},
				"methodIdentifiers": {
					"CALLEE()": "b923b370",
					"CALLER()": "863dabb4",
					"anotherDopeFunction()": "fd60d284",
					"dopeFunction()": "b04bd97f"
				}
			},
			"storageLayout": {
				"storage": [
					{
						"astId": 14,
						"contract": "Users/n2000/dev/seeds/test/mocks/call/MockCall4.sol:MockCall4",
						"label": "selector",
						"offset": 0,
						"slot": "0",
						"type": "t_bytes4"
					},
					{
						"astId": 25,
						"contract": "Users/n2000/dev/seeds/test/mocks/call/MockCall4.sol:MockCall4",
						"label": "anotherSelector",
						"offset": 4,
						"slot": "0",
						"type": "t_bytes4"
					}
				],
				"types": {
					"t_bytes4": {
						"encoding": "inplace",
						"label": "bytes4",
						"numberOfBytes": "4"
					}
				}
			},
			"userdoc": {
				"kind": "user",
				"methods": {},
				"version": 1
			}
		}
	}
}