{
	"Users/n2000/dev/seeds/test/mocks/call/MockCallee.sol": {
		"MockCallee": {
			"abi": [
				{
					"inputs": [
						{
							"internalType": "uint256",
							"name": "num",
							"type": "uint256"
						}
					],
					"name": "coolFunc",
					"outputs": [
						{
							"internalType": "uint256",
							"name": "",
							"type": "uint256"
						}
					],
					"stateMutability": "nonpayable",
					"type": "function"
				},
				{
					"inputs": [
						{
							"internalType": "uint256",
							"name": "num",
							"type": "uint256"
						}
					],
					"name": "fakeFunc",
					"outputs": [
						{
							"internalType": "uint256",
							"name": "",
							"type": "uint256"
						}
					],
					"stateMutability": "nonpayable",
					"type": "function"
				},
				{
					"inputs": [
						{
							"internalType": "uint256",
							"name": "num",
							"type": "uint256"
						}
					],
					"name": "niceFunc",
					"outputs": [
						{
							"internalType": "uint256",
							"name": "",
							"type": "uint256"
						}
					],
					"stateMutability": "nonpayable",
					"type": "function"
				},
				{
					"inputs": [
						{
							"internalType": "uint256",
							"name": "num",
							"type": "uint256"
						}
					],
					"name": "weirdFunc",
					"outputs": [
						{
							"internalType": "uint256",
							"name": "",
							"type": "uint256"
						}
					],
					"stateMutability": "nonpayable",
					"type": "function"
				}
			],
			"devdoc": {
				"kind": "dev",
				"methods": {},
				"version": 1
			},
			"evm": {
				"assembly": "    /* \"Users/n2000/dev/seeds/test/mocks/call/MockCallee.sol\":66:544  contract MockCallee {... */\n  mstore(0x40, 0x80)\n    /* \"Users/n2000/dev/seeds/test/mocks/call/MockCallee.sol\":108:109  0 */\n  0x00\n    /* \"Users/n2000/dev/seeds/test/mocks/call/MockCallee.sol\":93:109  uint coolNum = 0 */\n  dup1\n  sstore\n    /* \"Users/n2000/dev/seeds/test/mocks/call/MockCallee.sol\":66:544  contract MockCallee {... */\n  callvalue\n  dup1\n  iszero\n  tag_1\n  jumpi\n  0x00\n  dup1\n  revert\ntag_1:\n  pop\n  dataSize(sub_0)\n  dup1\n  dataOffset(sub_0)\n  0x00\n  codecopy\n  0x00\n  return\nstop\n\nsub_0: assembly {\n        /* \"Users/n2000/dev/seeds/test/mocks/call/MockCallee.sol\":66:544  contract MockCallee {... */\n      mstore(0x40, 0x80)\n      callvalue\n      dup1\n      iszero\n      tag_1\n      jumpi\n      0x00\n      dup1\n      revert\n    tag_1:\n      pop\n      jumpi(tag_2, lt(calldatasize, 0x04))\n      shr(0xe0, calldataload(0x00))\n      dup1\n      0x69a0cdaf\n      eq\n      tag_3\n      jumpi\n      dup1\n      0xa7c52d6e\n      eq\n      tag_4\n      jumpi\n      dup1\n      0xa7c6047c\n      eq\n      tag_5\n      jumpi\n      dup1\n      0xf1db7cdc\n      eq\n      tag_6\n      jumpi\n    tag_2:\n      0x00\n      dup1\n      revert\n        /* \"Users/n2000/dev/seeds/test/mocks/call/MockCallee.sol\":439:542  function weirdFunc(uint256 num) public returns (uint) {... */\n    tag_3:\n      tag_7\n      0x04\n      dup1\n      calldatasize\n      sub\n      dup2\n      add\n      swap1\n      tag_8\n      swap2\n      swap1\n      tag_9\n      jump\t// in\n    tag_8:\n      tag_10\n      jump\t// in\n    tag_7:\n      mload(0x40)\n      tag_11\n      swap2\n      swap1\n      tag_12\n      jump\t// in\n    tag_11:\n      mload(0x40)\n      dup1\n      swap2\n      sub\n      swap1\n      return\n        /* \"Users/n2000/dev/seeds/test/mocks/call/MockCallee.sol\":223:325  function niceFunc(uint256 num) public returns (uint) {... */\n    tag_4:\n      tag_13\n      0x04\n      dup1\n      calldatasize\n      sub\n      dup2\n      add\n      swap1\n      tag_14\n      swap2\n      swap1\n      tag_9\n      jump\t// in\n    tag_14:\n      tag_15\n      jump\t// in\n    tag_13:\n      mload(0x40)\n      tag_16\n      swap2\n      swap1\n      tag_12\n      jump\t// in\n    tag_16:\n      mload(0x40)\n      dup1\n      swap2\n      sub\n      swap1\n      return\n        /* \"Users/n2000/dev/seeds/test/mocks/call/MockCallee.sol\":331:433  function coolFunc(uint256 num) public returns (uint) {... */\n    tag_5:\n      tag_17\n      0x04\n      dup1\n      calldatasize\n      sub\n      dup2\n      add\n      swap1\n      tag_18\n      swap2\n      swap1\n      tag_9\n      jump\t// in\n    tag_18:\n      tag_19\n      jump\t// in\n    tag_17:\n      mload(0x40)\n      tag_20\n      swap2\n      swap1\n      tag_12\n      jump\t// in\n    tag_20:\n      mload(0x40)\n      dup1\n      swap2\n      sub\n      swap1\n      return\n        /* \"Users/n2000/dev/seeds/test/mocks/call/MockCallee.sol\":116:217  function fakeFunc(uint256 num) public returns (uint) {... */\n    tag_6:\n      tag_21\n      0x04\n      dup1\n      calldatasize\n      sub\n      dup2\n      add\n      swap1\n      tag_22\n      swap2\n      swap1\n      tag_9\n      jump\t// in\n    tag_22:\n      tag_23\n      jump\t// in\n    tag_21:\n      mload(0x40)\n      tag_24\n      swap2\n      swap1\n      tag_12\n      jump\t// in\n    tag_24:\n      mload(0x40)\n      dup1\n      swap2\n      sub\n      swap1\n      return\n        /* \"Users/n2000/dev/seeds/test/mocks/call/MockCallee.sol\":439:542  function weirdFunc(uint256 num) public returns (uint) {... */\n    tag_10:\n        /* \"Users/n2000/dev/seeds/test/mocks/call/MockCallee.sol\":487:491  uint */\n      0x00\n        /* \"Users/n2000/dev/seeds/test/mocks/call/MockCallee.sol\":514:517  num */\n      dup2\n        /* \"Users/n2000/dev/seeds/test/mocks/call/MockCallee.sol\":503:510  coolNum */\n      0x00\n      dup1\n        /* \"Users/n2000/dev/seeds/test/mocks/call/MockCallee.sol\":503:517  coolNum += num */\n      dup3\n      dup3\n      sload\n      tag_26\n      swap2\n      swap1\n      tag_27\n      jump\t// in\n    tag_26:\n      swap3\n      pop\n      pop\n      dup2\n      swap1\n      sstore\n      pop\n        /* \"Users/n2000/dev/seeds/test/mocks/call/MockCallee.sol\":534:535  2 */\n      0x02\n        /* \"Users/n2000/dev/seeds/test/mocks/call/MockCallee.sol\":527:535  return 2 */\n      swap1\n      pop\n        /* \"Users/n2000/dev/seeds/test/mocks/call/MockCallee.sol\":439:542  function weirdFunc(uint256 num) public returns (uint) {... */\n      swap2\n      swap1\n      pop\n      jump\t// out\n        /* \"Users/n2000/dev/seeds/test/mocks/call/MockCallee.sol\":223:325  function niceFunc(uint256 num) public returns (uint) {... */\n    tag_15:\n        /* \"Users/n2000/dev/seeds/test/mocks/call/MockCallee.sol\":270:274  uint */\n      0x00\n        /* \"Users/n2000/dev/seeds/test/mocks/call/MockCallee.sol\":297:300  num */\n      dup2\n        /* \"Users/n2000/dev/seeds/test/mocks/call/MockCallee.sol\":286:293  coolNum */\n      0x00\n      dup1\n        /* \"Users/n2000/dev/seeds/test/mocks/call/MockCallee.sol\":286:300  coolNum += num */\n      dup3\n      dup3\n      sload\n      tag_29\n      swap2\n      swap1\n      tag_27\n      jump\t// in\n    tag_29:\n      swap3\n      pop\n      pop\n      dup2\n      swap1\n      sstore\n      pop\n        /* \"Users/n2000/dev/seeds/test/mocks/call/MockCallee.sol\":317:318  2 */\n      0x02\n        /* \"Users/n2000/dev/seeds/test/mocks/call/MockCallee.sol\":310:318  return 2 */\n      swap1\n      pop\n        /* \"Users/n2000/dev/seeds/test/mocks/call/MockCallee.sol\":223:325  function niceFunc(uint256 num) public returns (uint) {... */\n      swap2\n      swap1\n      pop\n      jump\t// out\n        /* \"Users/n2000/dev/seeds/test/mocks/call/MockCallee.sol\":331:433  function coolFunc(uint256 num) public returns (uint) {... */\n    tag_19:\n        /* \"Users/n2000/dev/seeds/test/mocks/call/MockCallee.sol\":378:382  uint */\n      0x00\n        /* \"Users/n2000/dev/seeds/test/mocks/call/MockCallee.sol\":405:408  num */\n      dup2\n        /* \"Users/n2000/dev/seeds/test/mocks/call/MockCallee.sol\":394:401  coolNum */\n      0x00\n      dup1\n        /* \"Users/n2000/dev/seeds/test/mocks/call/MockCallee.sol\":394:408  coolNum += num */\n      dup3\n      dup3\n      sload\n      tag_31\n      swap2\n      swap1\n      tag_27\n      jump\t// in\n    tag_31:\n      swap3\n      pop\n      pop\n      dup2\n      swap1\n      sstore\n      pop\n        /* \"Users/n2000/dev/seeds/test/mocks/call/MockCallee.sol\":425:426  1 */\n      0x01\n        /* \"Users/n2000/dev/seeds/test/mocks/call/MockCallee.sol\":418:426  return 1 */\n      swap1\n      pop\n        /* \"Users/n2000/dev/seeds/test/mocks/call/MockCallee.sol\":331:433  function coolFunc(uint256 num) public returns (uint) {... */\n      swap2\n      swap1\n      pop\n      jump\t// out\n        /* \"Users/n2000/dev/seeds/test/mocks/call/MockCallee.sol\":116:217  function fakeFunc(uint256 num) public returns (uint) {... */\n    tag_23:\n        /* \"Users/n2000/dev/seeds/test/mocks/call/MockCallee.sol\":163:167  uint */\n      0x00\n        /* \"Users/n2000/dev/seeds/test/mocks/call/MockCallee.sol\":189:192  num */\n      dup2\n        /* \"Users/n2000/dev/seeds/test/mocks/call/MockCallee.sol\":179:186  coolNum */\n      0x00\n        /* \"Users/n2000/dev/seeds/test/mocks/call/MockCallee.sol\":179:192  coolNum = num */\n      dup2\n      swap1\n      sstore\n      pop\n        /* \"Users/n2000/dev/seeds/test/mocks/call/MockCallee.sol\":209:210  1 */\n      0x01\n        /* \"Users/n2000/dev/seeds/test/mocks/call/MockCallee.sol\":202:210  return 1 */\n      swap1\n      pop\n        /* \"Users/n2000/dev/seeds/test/mocks/call/MockCallee.sol\":116:217  function fakeFunc(uint256 num) public returns (uint) {... */\n      swap2\n      swap1\n      pop\n      jump\t// out\n        /* \"#utility.yul\":88:205   */\n    tag_34:\n        /* \"#utility.yul\":197:198   */\n      0x00\n        /* \"#utility.yul\":194:195   */\n      dup1\n        /* \"#utility.yul\":187:199   */\n      revert\n        /* \"#utility.yul\":334:411   */\n    tag_36:\n        /* \"#utility.yul\":371:378   */\n      0x00\n        /* \"#utility.yul\":400:405   */\n      dup2\n        /* \"#utility.yul\":389:405   */\n      swap1\n      pop\n        /* \"#utility.yul\":334:411   */\n      swap2\n      swap1\n      pop\n      jump\t// out\n        /* \"#utility.yul\":417:539   */\n    tag_37:\n        /* \"#utility.yul\":490:514   */\n      tag_47\n        /* \"#utility.yul\":508:513   */\n      dup2\n        /* \"#utility.yul\":490:514   */\n      tag_36\n      jump\t// in\n    tag_47:\n        /* \"#utility.yul\":483:488   */\n      dup2\n        /* \"#utility.yul\":480:515   */\n      eq\n        /* \"#utility.yul\":470:533   */\n      tag_48\n      jumpi\n        /* \"#utility.yul\":529:530   */\n      0x00\n        /* \"#utility.yul\":526:527   */\n      dup1\n        /* \"#utility.yul\":519:531   */\n      revert\n        /* \"#utility.yul\":470:533   */\n    tag_48:\n        /* \"#utility.yul\":417:539   */\n      pop\n      jump\t// out\n        /* \"#utility.yul\":545:684   */\n    tag_38:\n        /* \"#utility.yul\":591:596   */\n      0x00\n        /* \"#utility.yul\":629:635   */\n      dup2\n        /* \"#utility.yul\":616:636   */\n      calldataload\n        /* \"#utility.yul\":607:636   */\n      swap1\n      pop\n        /* \"#utility.yul\":645:678   */\n      tag_50\n        /* \"#utility.yul\":672:677   */\n      dup2\n        /* \"#utility.yul\":645:678   */\n      tag_37\n      jump\t// in\n    tag_50:\n        /* \"#utility.yul\":545:684   */\n      swap3\n      swap2\n      pop\n      pop\n      jump\t// out\n        /* \"#utility.yul\":690:1019   */\n    tag_9:\n        /* \"#utility.yul\":749:755   */\n      0x00\n        /* \"#utility.yul\":798:800   */\n      0x20\n        /* \"#utility.yul\":786:795   */\n      dup3\n        /* \"#utility.yul\":777:784   */\n      dup5\n        /* \"#utility.yul\":773:796   */\n      sub\n        /* \"#utility.yul\":769:801   */\n      slt\n        /* \"#utility.yul\":766:885   */\n      iszero\n      tag_52\n      jumpi\n        /* \"#utility.yul\":804:883   */\n      tag_53\n      tag_34\n      jump\t// in\n    tag_53:\n        /* \"#utility.yul\":766:885   */\n    tag_52:\n        /* \"#utility.yul\":924:925   */\n      0x00\n        /* \"#utility.yul\":949:1002   */\n      tag_54\n        /* \"#utility.yul\":994:1001   */\n      dup5\n        /* \"#utility.yul\":985:991   */\n      dup3\n        /* \"#utility.yul\":974:983   */\n      dup6\n        /* \"#utility.yul\":970:992   */\n      add\n        /* \"#utility.yul\":949:1002   */\n      tag_38\n      jump\t// in\n    tag_54:\n        /* \"#utility.yul\":939:1002   */\n      swap2\n      pop\n        /* \"#utility.yul\":895:1012   */\n      pop\n        /* \"#utility.yul\":690:1019   */\n      swap3\n      swap2\n      pop\n      pop\n      jump\t// out\n        /* \"#utility.yul\":1025:1143   */\n    tag_39:\n        /* \"#utility.yul\":1112:1136   */\n      tag_56\n        /* \"#utility.yul\":1130:1135   */\n      dup2\n        /* \"#utility.yul\":1112:1136   */\n      tag_36\n      jump\t// in\n    tag_56:\n        /* \"#utility.yul\":1107:1110   */\n      dup3\n        /* \"#utility.yul\":1100:1137   */\n      mstore\n        /* \"#utility.yul\":1025:1143   */\n      pop\n      pop\n      jump\t// out\n        /* \"#utility.yul\":1149:1371   */\n    tag_12:\n        /* \"#utility.yul\":1242:1246   */\n      0x00\n        /* \"#utility.yul\":1280:1282   */\n      0x20\n        /* \"#utility.yul\":1269:1278   */\n      dup3\n        /* \"#utility.yul\":1265:1283   */\n      add\n        /* \"#utility.yul\":1257:1283   */\n      swap1\n      pop\n        /* \"#utility.yul\":1293:1364   */\n      tag_58\n        /* \"#utility.yul\":1361:1362   */\n      0x00\n        /* \"#utility.yul\":1350:1359   */\n      dup4\n        /* \"#utility.yul\":1346:1363   */\n      add\n        /* \"#utility.yul\":1337:1343   */\n      dup5\n        /* \"#utility.yul\":1293:1364   */\n      tag_39\n      jump\t// in\n    tag_58:\n        /* \"#utility.yul\":1149:1371   */\n      swap3\n      swap2\n      pop\n      pop\n      jump\t// out\n        /* \"#utility.yul\":1377:1557   */\n    tag_40:\n        /* \"#utility.yul\":1425:1502   */\n      0x4e487b7100000000000000000000000000000000000000000000000000000000\n        /* \"#utility.yul\":1422:1423   */\n      0x00\n        /* \"#utility.yul\":1415:1503   */\n      mstore\n        /* \"#utility.yul\":1522:1526   */\n      0x11\n        /* \"#utility.yul\":1519:1520   */\n      0x04\n        /* \"#utility.yul\":1512:1527   */\n      mstore\n        /* \"#utility.yul\":1546:1550   */\n      0x24\n        /* \"#utility.yul\":1543:1544   */\n      0x00\n        /* \"#utility.yul\":1536:1551   */\n      revert\n        /* \"#utility.yul\":1563:1868   */\n    tag_27:\n        /* \"#utility.yul\":1603:1606   */\n      0x00\n        /* \"#utility.yul\":1622:1642   */\n      tag_61\n        /* \"#utility.yul\":1640:1641   */\n      dup3\n        /* \"#utility.yul\":1622:1642   */\n      tag_36\n      jump\t// in\n    tag_61:\n        /* \"#utility.yul\":1617:1642   */\n      swap2\n      pop\n        /* \"#utility.yul\":1656:1676   */\n      tag_62\n        /* \"#utility.yul\":1674:1675   */\n      dup4\n        /* \"#utility.yul\":1656:1676   */\n      tag_36\n      jump\t// in\n    tag_62:\n        /* \"#utility.yul\":1651:1676   */\n      swap3\n      pop\n        /* \"#utility.yul\":1810:1811   */\n      dup3\n        /* \"#utility.yul\":1742:1808   */\n      0xffffffffffffffffffffffffffffffffffffffffffffffffffffffffffffffff\n        /* \"#utility.yul\":1738:1812   */\n      sub\n        /* \"#utility.yul\":1735:1736   */\n      dup3\n        /* \"#utility.yul\":1732:1813   */\n      gt\n        /* \"#utility.yul\":1729:1836   */\n      iszero\n      tag_63\n      jumpi\n        /* \"#utility.yul\":1816:1834   */\n      tag_64\n      tag_40\n      jump\t// in\n    tag_64:\n        /* \"#utility.yul\":1729:1836   */\n    tag_63:\n        /* \"#utility.yul\":1860:1861   */\n      dup3\n        /* \"#utility.yul\":1857:1858   */\n      dup3\n        /* \"#utility.yul\":1853:1862   */\n      add\n        /* \"#utility.yul\":1846:1862   */\n      swap1\n      pop\n        /* \"#utility.yul\":1563:1868   */\n      swap3\n      swap2\n      pop\n      pop\n      jump\t// out\n\n    auxdata: 0xa2646970667358221220e32e5cf8449f5fb60e97fa66f866ea5f46ad8a16697a4b9c31cb53c08c3844c864736f6c634300080d0033\n}\n",
				"bytecode": {
					"linkReferences": {},
					"object": "60806040526000805534801561001457600080fd5b506102d9806100246000396000f3fe608060405234801561001057600080fd5b506004361061004c5760003560e01c806369a0cdaf14610051578063a7c52d6e14610081578063a7c6047c146100b1578063f1db7cdc146100e1575b600080fd5b61006b600480360381019061006691906101c7565b610111565b6040516100789190610203565b60405180910390f35b61009b600480360381019061009691906101c7565b610134565b6040516100a89190610203565b60405180910390f35b6100cb60048036038101906100c691906101c7565b610157565b6040516100d89190610203565b60405180910390f35b6100fb60048036038101906100f691906101c7565b61017a565b6040516101089190610203565b60405180910390f35b600081600080828254610124919061024d565b9250508190555060029050919050565b600081600080828254610147919061024d565b9250508190555060029050919050565b60008160008082825461016a919061024d565b9250508190555060019050919050565b60008160008190555060019050919050565b600080fd5b6000819050919050565b6101a481610191565b81146101af57600080fd5b50565b6000813590506101c18161019b565b92915050565b6000602082840312156101dd576101dc61018c565b5b60006101eb848285016101b2565b91505092915050565b6101fd81610191565b82525050565b600060208201905061021860008301846101f4565b92915050565b7f4e487b7100000000000000000000000000000000000000000000000000000000600052601160045260246000fd5b600061025882610191565b915061026383610191565b9250827fffffffffffffffffffffffffffffffffffffffffffffffffffffffffffffffff038211156102985761029761021e565b5b82820190509291505056fea2646970667358221220e32e5cf8449f5fb60e97fa66f866ea5f46ad8a16697a4b9c31cb53c08c3844c864736f6c634300080d0033",
					"opcodes": "PUSH1 0x80 PUSH1 0x40 MSTORE PUSH1 0x0 DUP1 SSTORE CALLVALUE DUP1 ISZERO PUSH2 0x14 JUMPI PUSH1 0x0 DUP1 REVERT JUMPDEST POP PUSH2 0x2D9 DUP1 PUSH2 0x24 PUSH1 0x0 CODECOPY PUSH1 0x0 RETURN INVALID PUSH1 0x80 PUSH1 0x40 MSTORE CALLVALUE DUP1 ISZERO PUSH2 0x10 JUMPI PUSH1 0x0 DUP1 REVERT JUMPDEST POP PUSH1 0x4 CALLDATASIZE LT PUSH2 0x4C JUMPI PUSH1 0x0 CALLDATALOAD PUSH1 0xE0 SHR DUP1 PUSH4 0x69A0CDAF EQ PUSH2 0x51 JUMPI DUP1 PUSH4 0xA7C52D6E EQ PUSH2 0x81 JUMPI DUP1 PUSH4 0xA7C6047C EQ PUSH2 0xB1 JUMPI DUP1 PUSH4 0xF1DB7CDC EQ PUSH2 0xE1 JUMPI JUMPDEST PUSH1 0x0 DUP1 REVERT JUMPDEST PUSH2 0x6B PUSH1 0x4 DUP1 CALLDATASIZE SUB DUP2 ADD SWAP1 PUSH2 0x66 SWAP2 SWAP1 PUSH2 0x1C7 JUMP JUMPDEST PUSH2 0x111 JUMP JUMPDEST PUSH1 0x40 MLOAD PUSH2 0x78 SWAP2 SWAP1 PUSH2 0x203 JUMP JUMPDEST PUSH1 0x40 MLOAD DUP1 SWAP2 SUB SWAP1 RETURN JUMPDEST PUSH2 0x9B PUSH1 0x4 DUP1 CALLDATASIZE SUB DUP2 ADD SWAP1 PUSH2 0x96 SWAP2 SWAP1 PUSH2 0x1C7 JUMP JUMPDEST PUSH2 0x134 JUMP JUMPDEST PUSH1 0x40 MLOAD PUSH2 0xA8 SWAP2 SWAP1 PUSH2 0x203 JUMP JUMPDEST PUSH1 0x40 MLOAD DUP1 SWAP2 SUB SWAP1 RETURN JUMPDEST PUSH2 0xCB PUSH1 0x4 DUP1 CALLDATASIZE SUB DUP2 ADD SWAP1 PUSH2 0xC6 SWAP2 SWAP1 PUSH2 0x1C7 JUMP JUMPDEST PUSH2 0x157 JUMP JUMPDEST PUSH1 0x40 MLOAD PUSH2 0xD8 SWAP2 SWAP1 PUSH2 0x203 JUMP JUMPDEST PUSH1 0x40 MLOAD DUP1 SWAP2 SUB SWAP1 RETURN JUMPDEST PUSH2 0xFB PUSH1 0x4 DUP1 CALLDATASIZE SUB DUP2 ADD SWAP1 PUSH2 0xF6 SWAP2 SWAP1 PUSH2 0x1C7 JUMP JUMPDEST PUSH2 0x17A JUMP JUMPDEST PUSH1 0x40 MLOAD PUSH2 0x108 SWAP2 SWAP1 PUSH2 0x203 JUMP JUMPDEST PUSH1 0x40 MLOAD DUP1 SWAP2 SUB SWAP1 RETURN JUMPDEST PUSH1 0x0 DUP2 PUSH1 0x0 DUP1 DUP3 DUP3 SLOAD PUSH2 0x124 SWAP2 SWAP1 PUSH2 0x24D JUMP JUMPDEST SWAP3 POP POP DUP2 SWAP1 SSTORE POP PUSH1 0x2 SWAP1 POP SWAP2 SWAP1 POP JUMP JUMPDEST PUSH1 0x0 DUP2 PUSH1 0x0 DUP1 DUP3 DUP3 SLOAD PUSH2 0x147 SWAP2 SWAP1 PUSH2 0x24D JUMP JUMPDEST SWAP3 POP POP DUP2 SWAP1 SSTORE POP PUSH1 0x2 SWAP1 POP SWAP2 SWAP1 POP JUMP JUMPDEST PUSH1 0x0 DUP2 PUSH1 0x0 DUP1 DUP3 DUP3 SLOAD PUSH2 0x16A SWAP2 SWAP1 PUSH2 0x24D JUMP JUMPDEST SWAP3 POP POP DUP2 SWAP1 SSTORE POP PUSH1 0x1 SWAP1 POP SWAP2 SWAP1 POP JUMP JUMPDEST PUSH1 0x0 DUP2 PUSH1 0x0 DUP2 SWAP1 SSTORE POP PUSH1 0x1 SWAP1 POP SWAP2 SWAP1 POP JUMP JUMPDEST PUSH1 0x0 DUP1 REVERT JUMPDEST PUSH1 0x0 DUP2 SWAP1 POP SWAP2 SWAP1 POP JUMP JUMPDEST PUSH2 0x1A4 DUP2 PUSH2 0x191 JUMP JUMPDEST DUP2 EQ PUSH2 0x1AF JUMPI PUSH1 0x0 DUP1 REVERT JUMPDEST POP JUMP JUMPDEST PUSH1 0x0 DUP2 CALLDATALOAD SWAP1 POP PUSH2 0x1C1 DUP2 PUSH2 0x19B JUMP JUMPDEST SWAP3 SWAP2 POP POP JUMP JUMPDEST PUSH1 0x0 PUSH1 0x20 DUP3 DUP5 SUB SLT ISZERO PUSH2 0x1DD JUMPI PUSH2 0x1DC PUSH2 0x18C JUMP JUMPDEST JUMPDEST PUSH1 0x0 PUSH2 0x1EB DUP5 DUP3 DUP6 ADD PUSH2 0x1B2 JUMP JUMPDEST SWAP2 POP POP SWAP3 SWAP2 POP POP JUMP JUMPDEST PUSH2 0x1FD DUP2 PUSH2 0x191 JUMP JUMPDEST DUP3 MSTORE POP POP JUMP JUMPDEST PUSH1 0x0 PUSH1 0x20 DUP3 ADD SWAP1 POP PUSH2 0x218 PUSH1 0x0 DUP4 ADD DUP5 PUSH2 0x1F4 JUMP JUMPDEST SWAP3 SWAP2 POP POP JUMP JUMPDEST PUSH32 0x4E487B7100000000000000000000000000000000000000000000000000000000 PUSH1 0x0 MSTORE PUSH1 0x11 PUSH1 0x4 MSTORE PUSH1 0x24 PUSH1 0x0 REVERT JUMPDEST PUSH1 0x0 PUSH2 0x258 DUP3 PUSH2 0x191 JUMP JUMPDEST SWAP2 POP PUSH2 0x263 DUP4 PUSH2 0x191 JUMP JUMPDEST SWAP3 POP DUP3 PUSH32 0xFFFFFFFFFFFFFFFFFFFFFFFFFFFFFFFFFFFFFFFFFFFFFFFFFFFFFFFFFFFFFFFF SUB DUP3 GT ISZERO PUSH2 0x298 JUMPI PUSH2 0x297 PUSH2 0x21E JUMP JUMPDEST JUMPDEST DUP3 DUP3 ADD SWAP1 POP SWAP3 SWAP2 POP POP JUMP INVALID LOG2 PUSH5 0x6970667358 0x22 SLT KECCAK256 0xE3 0x2E 0x5C 0xF8 DIFFICULTY SWAP16 0x5F 0xB6 0xE SWAP8 STATICCALL PUSH7 0xF866EA5F46AD8A AND PUSH10 0x7A4B9C31CB53C08C3844 0xC8 PUSH5 0x736F6C6343 STOP ADDMOD 0xD STOP CALLER "
				},
				"gasEstimates": {
					"creation": {
						"codeDepositCost": "145800",
						"executionCost": "5196",
						"totalCost": "150996"
					},
					"external": {
						"coolFunc(uint256)": "infinite",
						"fakeFunc(uint256)": "infinite",
						"niceFunc(uint256)": "infinite",
						"weirdFunc(uint256)": "infinite"
					}
				},
				"methodIdentifiers": {
					"coolFunc(uint256)": "a7c6047c",
					"fakeFunc(uint256)": "f1db7cdc",
					"niceFunc(uint256)": "a7c52d6e",
					"weirdFunc(uint256)": "69a0cdaf"
				}
			},
			"storageLayout": {
				"storage": [
					{
						"astId": 69,
						"contract": "Users/n2000/dev/seeds/test/mocks/call/MockCallee.sol:MockCallee",
						"label": "coolNum",
						"offset": 0,
						"slot": "0",
						"type": "t_uint256"
					}
				],
				"types": {
					"t_uint256": {
						"encoding": "inplace",
						"label": "uint256",
						"numberOfBytes": "32"
					}
				}
			},
			"userdoc": {
				"kind": "user",
				"methods": {},
				"version": 1
			}
		}
	}
}