{
  "abi": [
    {
      "inputs": [],
      "name": "dummyFunction",
      "outputs": [
        {
          "internalType": "uint256",
          "name": "",
          "type": "uint256"
        }
      ],
      "stateMutability": "nonpayable",
      "type": "function"
    }
  ],
  "bytecode": {
    "object": "0x6080604052348015600f57600080fd5b50607c80601d6000396000f3fe6080604052348015600f57600080fd5b506004361060285760003560e01c80637ec9d81f14602d575b600080fd5b602a601981905560405190815260200160405180910390f3fea2646970667358221220135e39e83b2ee2b25f875f498e724b1eb11fa9d18e1a2c79da6b783a1fbadb8364736f6c63430008110033",
    "linkReferences": {}
  },
  "methodIdentifiers": {
    "dummyFunction()": "7ec9d81f"
  },
  "id": 10
}