{
  "abi": [
    {
      "inputs": [],
      "stateMutability": "nonpayable",
      "type": "constructor"
    },
    {
      "inputs": [
        {
          "internalType": "address",
          "name": "_contract",
          "type": "address"
        }
      ],
      "name": "readCode",
      "outputs": [
        {
          "internalType": "bytes",
          "name": "",
          "type": "bytes"
        }
      ],
      "stateMutability": "view",
      "type": "function"
    }
  ],
  "bytecode": {
    "object": "0x608060405234801561001057600080fd5b5060405161001d9061005f565b604051809103906000f080158015610039573d6000803e3d6000fd5b50600080546001600160a01b0319166001600160a01b039290921691909117905561006b565b6099806101a483390190565b61012a8061007a6000396000f3fe6080604052348015600f57600080fd5b506004361060285760003560e01c8063f7f3ba2914602d575b600080fd5b603c6038366004607a565b6050565b6040516047919060a8565b60405180910390f35b60408051603f833b908101601f1916820190925281815260609180600060208401863c5092915050565b600060208284031215608b57600080fd5b81356001600160a01b038116811460a157600080fd5b9392505050565b600060208083528351808285015260005b8181101560d35785810183015185820160400152820160b9565b506000604082860101526040601f19601f830116850101925050509291505056fea26469706673582212208ff1c09d853d7235ca34bcaf5af2ddf7c7a5626af7e34ec74c5958112414afbf64736f6c634300081100336080604052348015600f57600080fd5b50607c80601d6000396000f3fe6080604052348015600f57600080fd5b506004361060285760003560e01c80637ec9d81f14602d575b600080fd5b602a601981905560405190815260200160405180910390f3fea2646970667358221220135e39e83b2ee2b25f875f498e724b1eb11fa9d18e1a2c79da6b783a1fbadb8364736f6c63430008110033",
    "linkReferences": {}
  },
  "methodIdentifiers": {
    "readCode(address)": "f7f3ba29"
  },
  "id": 11
}